{
  "contractName": "Banking",
  "abi": [
    {
      "constant": true,
      "inputs": [],
      "name": "bankBalance",
      "outputs": [
        {
          "name": "",
          "type": "uint256"
        }
      ],
      "payable": false,
      "stateMutability": "view",
      "type": "function",
      "signature": "0x28657aa5"
    },
    {
      "constant": true,
      "inputs": [],
      "name": "serialNumber",
      "outputs": [
        {
          "name": "",
          "type": "uint256"
        }
      ],
      "payable": false,
      "stateMutability": "view",
      "type": "function",
      "signature": "0x2a0daeea"
    },
    {
      "constant": true,
      "inputs": [
        {
          "name": "",
          "type": "uint256"
        }
      ],
      "name": "balances",
      "outputs": [
        {
          "name": "",
          "type": "uint256"
        }
      ],
      "payable": false,
      "stateMutability": "view",
      "type": "function",
      "signature": "0x4903b0d1"
    },
    {
      "constant": true,
      "inputs": [],
      "name": "transacNum",
      "outputs": [
        {
          "name": "",
          "type": "uint256"
        }
      ],
      "payable": false,
      "stateMutability": "view",
      "type": "function",
      "signature": "0x6b17aa83"
    },
    {
      "constant": true,
      "inputs": [
        {
          "name": "",
          "type": "uint256"
        }
      ],
      "name": "transactions",
      "outputs": [
        {
          "name": "transac",
          "type": "uint256"
        },
        {
          "name": "senderAccountName",
          "type": "string"
        },
        {
          "name": "receiverAccountName",
          "type": "string"
        },
        {
          "name": "amountTransacted",
          "type": "uint256"
        },
        {
          "name": "transactedAt",
          "type": "uint256"
        }
      ],
      "payable": false,
      "stateMutability": "view",
      "type": "function",
      "signature": "0x9ace38c2"
    },
    {
      "constant": true,
      "inputs": [
        {
          "name": "",
          "type": "uint256"
        }
      ],
      "name": "accounts",
      "outputs": [
        {
          "name": "serial",
          "type": "uint256"
        },
        {
          "name": "createdAt",
          "type": "uint256"
        },
        {
          "name": "name",
          "type": "string"
        },
        {
          "name": "location",
          "type": "string"
        },
        {
          "name": "creator",
          "type": "address"
        },
        {
          "name": "balance",
          "type": "uint256"
        },
        {
          "name": "doesExist",
          "type": "bool"
        }
      ],
      "payable": false,
      "stateMutability": "view",
      "type": "function",
      "signature": "0xf2a40db8"
    },
    {
      "anonymous": false,
      "inputs": [
        {
          "indexed": false,
          "name": "_serialNumber",
          "type": "uint256"
        },
        {
          "indexed": false,
          "name": "_accountName",
          "type": "bytes32"
        },
        {
          "indexed": false,
          "name": "_name",
          "type": "bytes32"
        },
        {
          "indexed": false,
          "name": "_balance",
          "type": "uint256"
        }
      ],
      "name": "AccountCreated",
      "type": "event",
      "signature": "0x489f53c6c3ae7e50a0659344a2a98457cbf11cc6d6ee3036aac001413cabf65a"
    },
    {
      "anonymous": false,
      "inputs": [
        {
          "indexed": false,
          "name": "_balance",
          "type": "uint256"
        },
        {
          "indexed": false,
          "name": "_transacNumber",
          "type": "uint256"
        },
        {
          "indexed": false,
          "name": "_receiver",
          "type": "bytes32"
        },
        {
          "indexed": false,
          "name": "_sender",
          "type": "bytes32"
        }
      ],
      "name": "TransactionCompleted",
      "type": "event",
      "signature": "0x41527871343696a107a542384004299ce002df647a9885de78d23188e4526c0d"
    },
    {
      "anonymous": false,
      "inputs": [
        {
          "indexed": false,
          "name": "_amount",
          "type": "uint256"
        },
        {
          "indexed": false,
          "name": "_accountName",
          "type": "bytes32"
        }
      ],
      "name": "LoanGenerated",
      "type": "event",
      "signature": "0x641a32bdd10787f44649233bb575e663202d32757ca17d721f4baf7378cbc80f"
    },
    {
      "constant": false,
      "inputs": [
        {
          "name": "_creator",
          "type": "address"
        },
        {
          "name": "_name",
          "type": "string"
        },
        {
          "name": "_location",
          "type": "string"
        }
      ],
      "name": "createAccount",
      "outputs": [],
      "payable": true,
      "stateMutability": "payable",
      "type": "function",
      "signature": "0x4dbe4454"
    },
    {
      "constant": false,
      "inputs": [
        {
          "name": "_serial",
          "type": "uint256"
        },
        {
          "name": "_amount",
          "type": "uint256"
        }
      ],
      "name": "addBalance",
      "outputs": [],
      "payable": true,
      "stateMutability": "payable",
      "type": "function",
      "signature": "0xa40398a6"
    },
    {
      "constant": false,
      "inputs": [
        {
          "name": "_serial",
          "type": "uint256"
        },
        {
          "name": "_amount",
          "type": "uint256"
        },
        {
          "name": "_ownerAccount",
          "type": "address"
        }
      ],
      "name": "withdrawBalance",
      "outputs": [
        {
          "name": "_success",
          "type": "bool"
        }
      ],
      "payable": true,
      "stateMutability": "payable",
      "type": "function",
      "signature": "0xfb3d4771"
    },
    {
      "constant": false,
      "inputs": [
        {
          "name": "_amount",
          "type": "uint256"
        },
        {
          "name": "_serial_2",
          "type": "uint256"
        },
        {
          "name": "_serial",
          "type": "uint256"
        }
      ],
      "name": "transactAmount",
      "outputs": [],
      "payable": true,
      "stateMutability": "payable",
      "type": "function",
      "signature": "0x3bd8b71d"
    },
    {
      "constant": false,
      "inputs": [
        {
          "name": "_amount",
          "type": "uint256"
        },
        {
          "name": "_serial",
          "type": "uint256"
        }
      ],
      "name": "getLoan",
      "outputs": [],
      "payable": true,
      "stateMutability": "payable",
      "type": "function",
      "signature": "0x06789aba"
    },
    {
      "constant": true,
      "inputs": [
        {
          "name": "_serial",
          "type": "uint256"
        }
      ],
      "name": "getBalance",
      "outputs": [
        {
          "name": "",
          "type": "uint256"
        }
      ],
      "payable": false,
      "stateMutability": "view",
      "type": "function",
      "signature": "0x1e010439"
    },
    {
      "constant": true,
      "inputs": [
        {
          "name": "_account",
          "type": "address"
        }
      ],
      "name": "getSenderBalance",
      "outputs": [
        {
          "name": "",
          "type": "uint256"
        }
      ],
      "payable": false,
      "stateMutability": "view",
      "type": "function",
      "signature": "0x7cfa4dbc"
    },
    {
      "constant": true,
      "inputs": [],
      "name": "getContractBalance",
      "outputs": [
        {
          "name": "",
          "type": "uint256"
        }
      ],
      "payable": false,
      "stateMutability": "view",
      "type": "function",
      "signature": "0x6f9fb98a"
    },
    {
      "constant": true,
      "inputs": [],
      "name": "getOwner",
      "outputs": [
        {
          "name": "",
          "type": "address"
        }
      ],
      "payable": false,
      "stateMutability": "view",
      "type": "function",
      "signature": "0x893d20e8"
    }
  ],
  "bytecode": "0x6080604052600080556000600155600060025534801561001e57600080fd5b506110df8061002e6000396000f3fe6080604052600436106100db576000357c0100000000000000000000000000000000000000000000000000000000900463ffffffff16806306789aba146100e05780631e0104391461011857806328657aa5146101675780632a0daeea146101925780633bd8b71d146101bd5780634903b0d1146101ff5780634dbe44541461024e5780636b17aa83146103c05780636f9fb98a146103eb5780637cfa4dbc14610416578063893d20e81461047b5780639ace38c2146104d2578063a40398a614610607578063f2a40db81461063f578063fb3d4771146107b2575b600080fd5b610116600480360360408110156100f657600080fd5b810190808035906020019092919080359060200190929190505050610822565b005b34801561012457600080fd5b506101516004803603602081101561013b57600080fd5b81019080803590602001909291905050506108b4565b6040518082815260200191505060405180910390f35b34801561017357600080fd5b5061017c6108d9565b6040518082815260200191505060405180910390f35b34801561019e57600080fd5b506101a76108df565b6040518082815260200191505060405180910390f35b6101fd600480360360608110156101d357600080fd5b810190808035906020019092919080359060200190929190803590602001909291905050506108e5565b005b34801561020b57600080fd5b506102386004803603602081101561022257600080fd5b81019080803590602001909291905050506109c0565b6040518082815260200191505060405180910390f35b6103be6004803603606081101561026457600080fd5b81019080803573ffffffffffffffffffffffffffffffffffffffff169060200190929190803590602001906401000000008111156102a157600080fd5b8201836020820111156102b357600080fd5b803590602001918460018302840111640100000000831117156102d557600080fd5b91908080601f016020809104026020016040519081016040528093929190818152602001838380828437600081840152601f19601f8201169050808301925050505050505091929192908035906020019064010000000081111561033857600080fd5b82018360208201111561034a57600080fd5b8035906020019184600183028401116401000000008311171561036c57600080fd5b91908080601f016020809104026020016040519081016040528093929190818152602001838380828437600081840152601f19601f8201169050808301925050505050505091929192905050506109d8565b005b3480156103cc57600080fd5b506103d5610b47565b6040518082815260200191505060405180910390f35b3480156103f757600080fd5b50610400610b4d565b6040518082815260200191505060405180910390f35b34801561042257600080fd5b506104656004803603602081101561043957600080fd5b81019080803573ffffffffffffffffffffffffffffffffffffffff169060200190929190505050610b6c565b6040518082815260200191505060405180910390f35b34801561048757600080fd5b50610490610b8d565b604051808273ffffffffffffffffffffffffffffffffffffffff1673ffffffffffffffffffffffffffffffffffffffff16815260200191505060405180910390f35b3480156104de57600080fd5b5061050b600480360360208110156104f557600080fd5b8101908080359060200190929190505050610b95565b604051808681526020018060200180602001858152602001848152602001838103835287818151815260200191508051906020019080838360005b83811015610561578082015181840152602081019050610546565b50505050905090810190601f16801561058e5780820380516001836020036101000a031916815260200191505b50838103825286818151815260200191508051906020019080838360005b838110156105c75780820151818401526020810190506105ac565b50505050905090810190601f1680156105f45780820380516001836020036101000a031916815260200191505b5097505050505050505060405180910390f35b61063d6004803603604081101561061d57600080fd5b810190808035906020019092919080359060200190929190505050610cfb565b005b34801561064b57600080fd5b506106786004803603602081101561066257600080fd5b8101908080359060200190929190505050610d8d565b6040518088815260200187815260200180602001806020018673ffffffffffffffffffffffffffffffffffffffff1673ffffffffffffffffffffffffffffffffffffffff16815260200185815260200184151515158152602001838103835288818151815260200191508051906020019080838360005b8381101561070a5780820151818401526020810190506106ef565b50505050905090810190601f1680156107375780820380516001836020036101000a031916815260200191505b50838103825287818151815260200191508051906020019080838360005b83811015610770578082015181840152602081019050610755565b50505050905090810190601f16801561079d5780820380516001836020036101000a031916815260200191505b50995050505050505050505060405180910390f35b610808600480360360608110156107c857600080fd5b810190808035906020019092919080359060200190929190803573ffffffffffffffffffffffffffffffffffffffff169060200190929190505050610f2c565b604051808215151515815260200191505060405180910390f35b670de0b6b3a76400008281151561083557fe5b046005600083815260200190815260200160002060008282540192505081905550670de0b6b3a76400008281151561086957fe5b046003600083815260200190815260200160002060050160008282540192505081905550670de0b6b3a7640000828115156108a057fe5b046002600082825403925050819055505050565b6000806003600084815260200190815260200160002060050154905080915050919050565b60025481565b60005481565b670de0b6b3a7640000838115156108f857fe5b046005600083815260200190815260200160002060008282540392505081905550670de0b6b3a76400008381151561092c57fe5b046003600083815260200190815260200160002060050160008282540392505081905550670de0b6b3a76400008381151561096357fe5b046005600084815260200190815260200160002060008282540192505081905550670de0b6b3a76400008381151561099757fe5b046003600084815260200190815260200160002060050160008282540192505081905550505050565b60056020528060005260406000206000915090505481565b600080815480929190600101919050555060e06040519081016040528060005481526020014281526020018381526020018281526020018473ffffffffffffffffffffffffffffffffffffffff1681526020016002815260200160011515815250600360008054815260200190815260200160002060008201518160000155602082015181600101556040820151816002019080519060200190610a7d92919061100e565b506060820151816003019080519060200190610a9a92919061100e565b5060808201518160040160006101000a81548173ffffffffffffffffffffffffffffffffffffffff021916908373ffffffffffffffffffffffffffffffffffffffff16021790555060a0820151816005015560c08201518160060160006101000a81548160ff021916908315150217905550905050600260056000805481526020019081526020016000206000828254019250508190555060028060008282540192505081905550505050565b60015481565b60003073ffffffffffffffffffffffffffffffffffffffff1631905090565b60008173ffffffffffffffffffffffffffffffffffffffff16319050919050565b600033905090565b6004602052806000526040600020600091509050806000015490806001018054600181600116156101000203166002900480601f016020809104026020016040519081016040528092919081815260200182805460018160011615610100020316600290048015610c475780601f10610c1c57610100808354040283529160200191610c47565b820191906000526020600020905b815481529060010190602001808311610c2a57829003601f168201915b505050505090806002018054600181600116156101000203166002900480601f016020809104026020016040519081016040528092919081815260200182805460018160011615610100020316600290048015610ce55780601f10610cba57610100808354040283529160200191610ce5565b820191906000526020600020905b815481529060010190602001808311610cc857829003601f168201915b5050505050908060030154908060040154905085565b670de0b6b3a764000081811515610d0e57fe5b046005600084815260200190815260200160002060008282540192505081905550670de0b6b3a764000081811515610d4257fe5b046003600084815260200190815260200160002060050160008282540192505081905550670de0b6b3a764000081811515610d7957fe5b046002600082825401925050819055505050565b6003602052806000526040600020600091509050806000015490806001015490806002018054600181600116156101000203166002900480601f016020809104026020016040519081016040528092919081815260200182805460018160011615610100020316600290048015610e455780601f10610e1a57610100808354040283529160200191610e45565b820191906000526020600020905b815481529060010190602001808311610e2857829003601f168201915b505050505090806003018054600181600116156101000203166002900480601f016020809104026020016040519081016040528092919081815260200182805460018160011615610100020316600290048015610ee35780601f10610eb857610100808354040283529160200191610ee3565b820191906000526020600020905b815481529060010190602001808311610ec657829003601f168201915b5050505050908060040160009054906101000a900473ffffffffffffffffffffffffffffffffffffffff16908060050154908060060160009054906101000a900460ff16905087565b60008173ffffffffffffffffffffffffffffffffffffffff166108fc849081150290604051600060405180830381858888f19350505050158015610f74573d6000803e3d6000fd5b50670de0b6b3a764000083811515610f8857fe5b046005600086815260200190815260200160002060008282540392505081905550670de0b6b3a764000083811515610fbc57fe5b046003600086815260200190815260200160002060050160008282540392505081905550670de0b6b3a764000083811515610ff357fe5b04600260008282540392505081905550600190509392505050565b828054600181600116156101000203166002900490600052602060002090601f016020900481019282601f1061104f57805160ff191683800117855561107d565b8280016001018555821561107d579182015b8281111561107c578251825591602001919060010190611061565b5b50905061108a919061108e565b5090565b6110b091905b808211156110ac576000816000905550600101611094565b5090565b9056fea165627a7a723058207e848761cf5456333d36be810029153e93208e9cc3c14de49278246612ecb0310029",
  "source": "// SPDX-License-Identifier: MIT\npragma solidity >=0.4.21 <0.7.0;\n\n// import \"github.com/Arachnid/solidity-stringutils/strings.sol\";\ncontract Banking {\n    //  using strings for *;\n\n\n\n    //The owner of the contract\n    // address payable owner;\n\n    uint256 public serialNumber = 0;\n    uint256 public transacNum = 0;\n    uint256 public bankBalance = 0;\n\n    \n\n    // constructor() public {\n    //     owner = msg.sender;\n    // }\n\n    \n    // function accountLogin(address payable _creator)public {\n    //   address payable owner=_creator;\n     \n\n    // //Defined condition to check that the owner who has logged in can only do these transactions\n    // modifier onlyOwner() {\n    //     require(msg.sender == );\n    //     _;\n    // }\n\n    // }\n    \n\n\n\n\n\n\n\n    //Defining a struct to store the account details\n    struct Account {\n        uint256 serial;\n        uint createdAt;\n        string name;\n        string location;\n        address creator;\n        //   bytes32 accountName;\n        uint256 balance;\n        bool doesExist;\n    }\n\n    //Defining a struct to store transaction record\n    struct Transaction {\n        uint256 transac;\n        string senderAccountName;\n        string receiverAccountName;\n        uint256 amountTransacted;\n        uint256 transactedAt;\n    }\n\n    // All the mappings present in the contract\n    mapping(uint256 => Account) public accounts;\n    mapping(uint256 => Transaction) public transactions;\n    mapping(uint256 => uint256) public balances;\n\n    event AccountCreated(\n        uint256 _serialNumber,\n        bytes32 _accountName,\n        bytes32 _name,\n        uint256 _balance\n    );\n\n    event TransactionCompleted(\n        uint256 _balance,\n        uint256 _transacNumber,\n        bytes32 _receiver,\n        bytes32 _sender\n    );\n    event LoanGenerated(uint256 _amount, bytes32 _accountName);\n\n    // error InsufficientFunds (bytes32 _accountName);\n\n\n\n    //Function to create account , the 2 ETH balance will be taken from your ethereum account and deposited to the banking contract \n    function createAccount(address payable _creator,string memory _name, string memory _location)\n        public\n        payable\n     \n    {\n        serialNumber++;\n        accounts[serialNumber] = Account(\n            serialNumber,\n            block.timestamp,\n            _name,\n            _location,\n            _creator,\n            2,\n            true\n        );\n        balances[serialNumber] += 2;\n        bankBalance+=2;\n    }\n\n\n\n//Function to add balance to your existing acccount ,the balance will be taken from your ethereum account\n    function addBalance(uint256 _serial, uint256 _amount) public payable \n    \n   \n    \n    {\n        balances[_serial] += _amount/1000000000000000000;\n        accounts[_serial].balance += _amount/1000000000000000000;\n        bankBalance+=_amount/1000000000000000000;\n    }\n    \n\n\n\n//Function to withdraw balance from your existing accounts, the balance will be transferred to your blockchain account\n    function withdrawBalance (\n        uint _serial,\n        uint256 _amount,\n        address payable _ownerAccount\n    ) external payable  \n    \n \n    \n     returns  (bool _success)  {\n        _ownerAccount.transfer(_amount);\n        balances[_serial]-=_amount/1000000000000000000;\n        accounts[_serial].balance-=_amount/1000000000000000000;\n        bankBalance-=_amount/1000000000000000000;\n        return true;\n    }\n\n\n\n\n\n//Function to virtually send money from one bank account to other \n    function transactAmount(\n        uint256 _amount,\n        uint256 _serial_2,\n        uint256 _serial\n    ) public payable \n    \n\n     \n     {\n        balances[_serial] -= _amount/1000000000000000000;\n        accounts[_serial].balance -= _amount/1000000000000000000;\n\n        balances[_serial_2] += _amount/1000000000000000000;\n        accounts[_serial_2].balance += _amount/1000000000000000000;\n    }\n\n\n\n\n//Function to get a loan from the bank the accounts will be virtually updated but the actual ETH will only be transferred if you want to withdraw the amount \n    function getLoan(uint256 _amount, uint256 _serial)  public payable  \n    \n    \n    {\n        balances[_serial] += _amount/1000000000000000000;\n        accounts[_serial].balance += _amount/1000000000000000000;\n\n        bankBalance -= _amount/1000000000000000000;\n    }\n\n\n\n//Simple spare function to getBalance of any of the serial accounts won't be of much use but let's see\n    function getBalance(uint256 _serial) public view  \n    \n\n    \n     returns (uint256) {\n        uint256 bal = accounts[_serial].balance;\n        return bal;\n    }\n\n\n//Function to get the msg.sender's ETH balance\n    function getSenderBalance(address payable _account)\n        external\n        view\n        \n        returns (uint256)\n    {\n        return _account.balance;\n    }\n\n\n//Function to get the contract's existing balance\n    function getContractBalance() external view returns (uint256) {\n        return address(this).balance;\n    }\n\n   \n\n\n\n//Function to get the owner\n\nfunction getOwner() public view   returns(address){\n  return msg.sender;\n}\n\n}\n\n\n\n\n\n\n\n//Terminal commands for truffle \n\n// var instance=await Banking.deployed()\n\n// var owner=await instance.getOwner()\n// var main =await instance.getMainAccount()\n\n// await instance.sendBalance()\n\n\n",
  "sourcePath": "/home/deucaleon19/Documents/eth_banking_system/contracts/Banking.sol",
  "compiler": {
    "name": "solc",
    "version": "0.5.0+commit.1d4f565a.Emscripten.clang"
  },
  "schemaVersion": "3.0.1",
  "updatedAt": "2021-09-26T12:44:38.285Z",
  "devdoc": {
    "methods": {}
  },
  "userdoc": {
    "methods": {}
  }
}