{
  "contractName": "Banking",
  "abi": [
    {
      "constant": true,
      "inputs": [],
      "name": "bankBalance",
      "outputs": [
        {
          "name": "",
          "type": "uint256"
        }
      ],
      "payable": false,
      "stateMutability": "view",
      "type": "function",
      "signature": "0x28657aa5"
    },
    {
      "constant": true,
      "inputs": [],
      "name": "serialNumber",
      "outputs": [
        {
          "name": "",
          "type": "uint256"
        }
      ],
      "payable": false,
      "stateMutability": "view",
      "type": "function",
      "signature": "0x2a0daeea"
    },
    {
      "constant": true,
      "inputs": [],
      "name": "transacNum",
      "outputs": [
        {
          "name": "",
          "type": "uint256"
        }
      ],
      "payable": false,
      "stateMutability": "view",
      "type": "function",
      "signature": "0x6b17aa83"
    },
    {
      "constant": true,
      "inputs": [
        {
          "name": "",
          "type": "uint256"
        }
      ],
      "name": "transactions",
      "outputs": [
        {
          "name": "transacNum",
          "type": "uint256"
        },
        {
          "name": "currentBalance",
          "type": "uint256"
        },
        {
          "name": "amountTransacted",
          "type": "uint256"
        },
        {
          "name": "createdAt",
          "type": "uint256"
        },
        {
          "name": "transacType",
          "type": "string"
        },
        {
          "name": "accountSerialNumber",
          "type": "uint256"
        }
      ],
      "payable": false,
      "stateMutability": "view",
      "type": "function",
      "signature": "0x9ace38c2"
    },
    {
      "constant": true,
      "inputs": [
        {
          "name": "",
          "type": "uint256"
        }
      ],
      "name": "accounts",
      "outputs": [
        {
          "name": "serial",
          "type": "uint256"
        },
        {
          "name": "createdAt",
          "type": "uint256"
        },
        {
          "name": "name",
          "type": "string"
        },
        {
          "name": "location",
          "type": "string"
        },
        {
          "name": "creator",
          "type": "address"
        },
        {
          "name": "balance",
          "type": "uint256"
        },
        {
          "name": "doesExist",
          "type": "bool"
        }
      ],
      "payable": false,
      "stateMutability": "view",
      "type": "function",
      "signature": "0xf2a40db8"
    },
    {
      "inputs": [],
      "payable": false,
      "stateMutability": "nonpayable",
      "type": "constructor",
      "signature": "constructor"
    },
    {
      "anonymous": false,
      "inputs": [
        {
          "indexed": false,
          "name": "_serialNumber",
          "type": "uint256"
        },
        {
          "indexed": false,
          "name": "_name",
          "type": "bytes32"
        },
        {
          "indexed": false,
          "name": "_location",
          "type": "bytes32"
        },
        {
          "indexed": false,
          "name": "_createdAt",
          "type": "uint256"
        },
        {
          "indexed": false,
          "name": "_balance",
          "type": "uint256"
        }
      ],
      "name": "AccountCreated",
      "type": "event",
      "signature": "0x3ede6b7e4e52b5ab908db14c677a07c2806955dbf82ea6e91045c725ccfc7edf"
    },
    {
      "anonymous": false,
      "inputs": [
        {
          "indexed": false,
          "name": "_amount",
          "type": "uint256"
        },
        {
          "indexed": false,
          "name": "_transacNumber",
          "type": "uint256"
        },
        {
          "indexed": false,
          "name": "_currentAccountSerial",
          "type": "uint256"
        },
        {
          "indexed": false,
          "name": "_transactionType",
          "type": "bytes32"
        }
      ],
      "name": "TransactionCompleted",
      "type": "event",
      "signature": "0x30bf4b72d8fd6ed273a42c7d6387deb12830c381458996419db8c925535c17bf"
    },
    {
      "constant": false,
      "inputs": [
        {
          "name": "_creator",
          "type": "address"
        },
        {
          "name": "_name",
          "type": "string"
        },
        {
          "name": "_location",
          "type": "string"
        }
      ],
      "name": "createAccount",
      "outputs": [],
      "payable": true,
      "stateMutability": "payable",
      "type": "function",
      "signature": "0x4dbe4454"
    },
    {
      "constant": false,
      "inputs": [
        {
          "name": "_serial",
          "type": "uint256"
        },
        {
          "name": "_amount",
          "type": "uint256"
        },
        {
          "name": "_creator",
          "type": "address"
        }
      ],
      "name": "addBalance",
      "outputs": [],
      "payable": true,
      "stateMutability": "payable",
      "type": "function",
      "signature": "0xe15cdcc4"
    },
    {
      "constant": false,
      "inputs": [
        {
          "name": "_serial",
          "type": "uint256"
        },
        {
          "name": "_amount",
          "type": "uint256"
        },
        {
          "name": "_creator",
          "type": "address"
        }
      ],
      "name": "withdrawBalance",
      "outputs": [
        {
          "name": "_success",
          "type": "bool"
        }
      ],
      "payable": true,
      "stateMutability": "payable",
      "type": "function",
      "signature": "0xfb3d4771"
    },
    {
      "constant": false,
      "inputs": [
        {
          "name": "_amount",
          "type": "uint256"
        },
        {
          "name": "_serial_2",
          "type": "uint256"
        },
        {
          "name": "_serial",
          "type": "uint256"
        }
      ],
      "name": "transactAmount",
      "outputs": [],
      "payable": true,
      "stateMutability": "payable",
      "type": "function",
      "signature": "0x3bd8b71d"
    },
    {
      "constant": false,
      "inputs": [
        {
          "name": "_amount",
          "type": "uint256"
        },
        {
          "name": "_serial",
          "type": "uint256"
        }
      ],
      "name": "getLoan",
      "outputs": [],
      "payable": true,
      "stateMutability": "payable",
      "type": "function",
      "signature": "0x06789aba"
    },
    {
      "constant": true,
      "inputs": [
        {
          "name": "_serial",
          "type": "uint256"
        }
      ],
      "name": "getBalance",
      "outputs": [
        {
          "name": "",
          "type": "uint256"
        }
      ],
      "payable": false,
      "stateMutability": "view",
      "type": "function",
      "signature": "0x1e010439"
    },
    {
      "constant": true,
      "inputs": [
        {
          "name": "_account",
          "type": "address"
        }
      ],
      "name": "getSenderBalance",
      "outputs": [
        {
          "name": "",
          "type": "uint256"
        }
      ],
      "payable": false,
      "stateMutability": "view",
      "type": "function",
      "signature": "0x7cfa4dbc"
    },
    {
      "constant": true,
      "inputs": [],
      "name": "getContractBalance",
      "outputs": [
        {
          "name": "",
          "type": "uint256"
        }
      ],
      "payable": false,
      "stateMutability": "view",
      "type": "function",
      "signature": "0x6f9fb98a"
    },
    {
      "constant": true,
      "inputs": [],
      "name": "getOwner",
      "outputs": [
        {
          "name": "",
          "type": "address"
        }
      ],
      "payable": false,
      "stateMutability": "view",
      "type": "function",
      "signature": "0x893d20e8"
    }
  ],
  "bytecode": "0x608060405260008055600060015560006002553480156200001f57600080fd5b5060e060405190810160405280600081526020014281526020016040805190810160405280600881526020017f457468657265616c00000000000000000000000000000000000000000000000081525081526020016040805190810160405280600c81526020017f4e4954204475726761707572000000000000000000000000000000000000000081525081526020013073ffffffffffffffffffffffffffffffffffffffff168152602001600081526020016001151581525060036000808152602001908152602001600020600082015181600001556020820151816001015560408201518160020190805190602001906200011e929190620001b8565b5060608201518160030190805190602001906200013d929190620001b8565b5060808201518160040160006101000a81548173ffffffffffffffffffffffffffffffffffffffff021916908373ffffffffffffffffffffffffffffffffffffffff16021790555060a0820151816005015560c08201518160060160006101000a81548160ff02191690831515021790555090505062000267565b828054600181600116156101000203166002900490600052602060002090601f016020900481019282601f10620001fb57805160ff19168380011785556200022c565b828001600101855582156200022c579182015b828111156200022b5782518255916020019190600101906200020e565b5b5090506200023b91906200023f565b5090565b6200026491905b808211156200026057600081600090555060010162000246565b5090565b90565b61187780620002776000396000f3fe6080604052600436106100d0576000357c0100000000000000000000000000000000000000000000000000000000900463ffffffff16806306789aba146100d55780631e0104391461010d57806328657aa51461015c5780632a0daeea146101875780633bd8b71d146101b25780634dbe4454146101f45780636b17aa83146103665780636f9fb98a146103915780637cfa4dbc146103bc578063893d20e8146104215780639ace38c214610478578063e15cdcc41461054f578063f2a40db8146105a7578063fb3d47711461071a575b600080fd5b61010b600480360360408110156100eb57600080fd5b81019080803590602001909291908035906020019092919050505061078a565b005b34801561011957600080fd5b506101466004803603602081101561013057600080fd5b8101908080359060200190929190505050610994565b6040518082815260200191505060405180910390f35b34801561016857600080fd5b506101716109b9565b6040518082815260200191505060405180910390f35b34801561019357600080fd5b5061019c6109bf565b6040518082815260200191505060405180910390f35b6101f2600480360360608110156101c857600080fd5b810190808035906020019092919080359060200190929190803590602001909291905050506109c5565b005b6103646004803603606081101561020a57600080fd5b81019080803573ffffffffffffffffffffffffffffffffffffffff1690602001909291908035906020019064010000000081111561024757600080fd5b82018360208201111561025957600080fd5b8035906020019184600183028401116401000000008311171561027b57600080fd5b91908080601f016020809104026020016040519081016040528093929190818152602001838380828437600081840152601f19601f820116905080830192505050505050509192919290803590602001906401000000008111156102de57600080fd5b8201836020820111156102f057600080fd5b8035906020019184600183028401116401000000008311171561031257600080fd5b91908080601f016020809104026020016040519081016040528093929190818152602001838380828437600081840152601f19601f820116905080830192505050505050509192919290505050610d88565b005b34801561037257600080fd5b5061037b61104c565b6040518082815260200191505060405180910390f35b34801561039d57600080fd5b506103a6611052565b6040518082815260200191505060405180910390f35b3480156103c857600080fd5b5061040b600480360360208110156103df57600080fd5b81019080803573ffffffffffffffffffffffffffffffffffffffff169060200190929190505050611071565b6040518082815260200191505060405180910390f35b34801561042d57600080fd5b50610436611092565b604051808273ffffffffffffffffffffffffffffffffffffffff1673ffffffffffffffffffffffffffffffffffffffff16815260200191505060405180910390f35b34801561048457600080fd5b506104b16004803603602081101561049b57600080fd5b810190808035906020019092919050505061109a565b6040518087815260200186815260200185815260200184815260200180602001838152602001828103825284818151815260200191508051906020019080838360005b8381101561050f5780820151818401526020810190506104f4565b50505050905090810190601f16801561053c5780820380516001836020036101000a031916815260200191505b5097505050505050505060405180910390f35b6105a56004803603606081101561056557600080fd5b810190808035906020019092919080359060200190929190803573ffffffffffffffffffffffffffffffffffffffff16906020019092919050505061116e565b005b3480156105b357600080fd5b506105e0600480360360208110156105ca57600080fd5b8101908080359060200190929190505050611391565b6040518088815260200187815260200180602001806020018673ffffffffffffffffffffffffffffffffffffffff1673ffffffffffffffffffffffffffffffffffffffff16815260200185815260200184151515158152602001838103835288818151815260200191508051906020019080838360005b83811015610672578082015181840152602081019050610657565b50505050905090810190601f16801561069f5780820380516001836020036101000a031916815260200191505b50838103825287818151815260200191508051906020019080838360005b838110156106d85780820151818401526020810190506106bd565b50505050905090810190601f1680156107055780820380516001836020036101000a031916815260200191505b50995050505050505050505060405180910390f35b6107706004803603606081101561073057600080fd5b810190808035906020019092919080359060200190929190803573ffffffffffffffffffffffffffffffffffffffff169060200190929190505050611530565b604051808215151515815260200191505060405180910390f35b67016345785d8a00008281151561079d57fe5b0460025410151561099057670de0b6b3a7640000828115156107bb57fe5b046003600083815260200190815260200160002060050160008282540192505081905550670de0b6b3a7640000828115156107f257fe5b0460026000828254039250508190555060016000815480929190600101919050555060c060405190810160405280600154815260200160036000848152602001908152602001600020600501548152602001670de0b6b3a76400008481151561085757fe5b0481526020014281526020016040805190810160405280600f81526020017f4c6f616e5472616e73616374696f6e00000000000000000000000000000000008152508152602001828152506004600060015481526020019081526020016000206000820151816000015560208201518160010155604082015181600201556060820151816003015560808201518160040190805190602001906108fb9291906117a6565b5060a082015181600501559050507f30bf4b72d8fd6ed273a42c7d6387deb12830c381458996419db8c925535c17bf670de0b6b3a76400008381151561093d57fe5b0460015460005460405180848152602001838152602001828152602001807f4c6f616e5472616e73616374696f6e0000000000000000000000000000000000815250602001935050505060405180910390a15b5050565b6000806003600084815260200190815260200160002060050154905080915050919050565b60025481565b60005481565b6001670de0b6b3a7640000848115156109da57fe5b04016003600083815260200190815260200160002060050154101515610d8357670de0b6b3a764000083811515610a0d57fe5b046003600083815260200190815260200160002060050160008282540392505081905550670de0b6b3a764000083811515610a4457fe5b0460036000848152602001908152602001600020600501600082825401925050819055506001600081548092919060010191905055507f30bf4b72d8fd6ed273a42c7d6387deb12830c381458996419db8c925535c17bf670de0b6b3a764000084811515610aae57fe5b0460015460005460405180848152602001838152602001828152602001807f5472616e736665724d6f6e657953656e74000000000000000000000000000000815250602001935050505060405180910390a160c060405190810160405280600154815260200160036000848152602001908152602001600020600501548152602001670de0b6b3a764000085811515610b4357fe5b0481526020014281526020016040805190810160405280601181526020017f5472616e736665724d6f6e657953656e74000000000000000000000000000000815250815260200182815250600460006001548152602001908152602001600020600082015181600001556020820151816001015560408201518160020155606082015181600301556080820151816004019080519060200190610be79291906117a6565b5060a082015181600501559050506001600081548092919060010191905055507f30bf4b72d8fd6ed273a42c7d6387deb12830c381458996419db8c925535c17bf670de0b6b3a764000084811515610c3b57fe5b0460015460005460405180848152602001838152602001828152602001807f5472616e736665724d6f6e657952656365697665640000000000000000000000815250602001935050505060405180910390a160c060405190810160405280600154815260200160036000858152602001908152602001600020600501548152602001670de0b6b3a764000085811515610cd057fe5b0481526020014281526020016040805190810160405280601681526020017f5472616e736665724d6f6e657952456365656976656400000000000000000000815250815260200183815250600460006001548152602001908152602001600020600082015181600001556020820151816001015560408201518160020155606082015181600301556080820151816004019080519060200190610d749291906117a6565b5060a082015181600501559050505b505050565b60038373ffffffffffffffffffffffffffffffffffffffff163110151561104757600080815480929190600101919050555060e06040519081016040528060005481526020014281526020018381526020018281526020018473ffffffffffffffffffffffffffffffffffffffff1681526020016002815260200160011515815250600360008054815260200190815260200160002060008201518160000155602082015181600101556040820151816002019080519060200190610e4e9291906117a6565b506060820151816003019080519060200190610e6b9291906117a6565b5060808201518160040160006101000a81548173ffffffffffffffffffffffffffffffffffffffff021916908373ffffffffffffffffffffffffffffffffffffffff16021790555060a0820151816005015560c08201518160060160006101000a81548160ff0219169083151502179055509050506002806000828254019250508190555060016000815480929190600101919050555060c060405190810160405280600154815260200160028152602001600281526020014281526020016040805190810160405280600a81526020017f4e65774163636f756e74000000000000000000000000000000000000000000008152508152602001600054815250600460006001548152602001908152602001600020600082015181600001556020820151816001015560408201518160020155606082015181600301556080820151816004019080519060200190610fc49291906117a6565b5060a082015181600501559050507f30bf4b72d8fd6ed273a42c7d6387deb12830c381458996419db8c925535c17bf600260015460005460405180848152602001838152602001828152602001807f4e65774163636f756e7400000000000000000000000000000000000000000000815250602001935050505060405180910390a15b505050565b60015481565b60003073ffffffffffffffffffffffffffffffffffffffff1631905090565b60008173ffffffffffffffffffffffffffffffffffffffff16319050919050565b600033905090565b6004602052806000526040600020600091509050806000015490806001015490806002015490806003015490806004018054600181600116156101000203166002900480601f01602080910402602001604051908101604052809291908181526020018280546001816001161561010002031660029004801561115e5780601f106111335761010080835404028352916020019161115e565b820191906000526020600020905b81548152906001019060200180831161114157829003601f168201915b5050505050908060050154905086565b6001670de0b6b3a76400008381151561118357fe5b04018173ffffffffffffffffffffffffffffffffffffffff163110151561138c57670de0b6b3a7640000828115156111b757fe5b046003600085815260200190815260200160002060050160008282540192505081905550670de0b6b3a7640000828115156111ee57fe5b0460026000828254019250508190555060016000815480929190600101919050555060c060405190810160405280600154815260200160036000868152602001908152602001600020600501548152602001670de0b6b3a76400008481151561125357fe5b0481526020014281526020016040805190810160405280600d81526020017f416464696e6742616c616e6365000000000000000000000000000000000000008152508152602001848152506004600060015481526020019081526020016000206000820151816000015560208201518160010155604082015181600201556060820151816003015560808201518160040190805190602001906112f79291906117a6565b5060a082015181600501559050507f30bf4b72d8fd6ed273a42c7d6387deb12830c381458996419db8c925535c17bf670de0b6b3a76400008381151561133957fe5b0460015460005460405180848152602001838152602001828152602001807f416464696e6742616c616e636500000000000000000000000000000000000000815250602001935050505060405180910390a15b505050565b6003602052806000526040600020600091509050806000015490806001015490806002018054600181600116156101000203166002900480601f0160208091040260200160405190810160405280929190818152602001828054600181600116156101000203166002900480156114495780601f1061141e57610100808354040283529160200191611449565b820191906000526020600020905b81548152906001019060200180831161142c57829003601f168201915b505050505090806003018054600181600116156101000203166002900480601f0160208091040260200160405190810160405280929190818152602001828054600181600116156101000203166002900480156114e75780601f106114bc576101008083540402835291602001916114e7565b820191906000526020600020905b8154815290600101906020018083116114ca57829003601f168201915b5050505050908060040160009054906101000a900473ffffffffffffffffffffffffffffffffffffffff16908060050154908060060160009054906101000a900460ff16905087565b60006001670de0b6b3a76400008481151561154757fe5b0401600360008681526020019081526020016000206005015410151561179e578173ffffffffffffffffffffffffffffffffffffffff166108fc849081150290604051600060405180830381858888f193505050501580156115ad573d6000803e3d6000fd5b50670de0b6b3a7640000838115156115c157fe5b046003600086815260200190815260200160002060050160008282540392505081905550670de0b6b3a7640000838115156115f857fe5b0460026000828254039250508190555060016000815480929190600101919050555060c060405190810160405280600154815260200160036000878152602001908152602001600020600501548152602001670de0b6b3a76400008581151561165d57fe5b0481526020014281526020016040805190810160405280600a81526020017f5769746864726177616c000000000000000000000000000000000000000000008152508152602001858152506004600060015481526020019081526020016000206000820151816000015560208201518160010155604082015181600201556060820151816003015560808201518160040190805190602001906117019291906117a6565b5060a082015181600501559050507f30bf4b72d8fd6ed273a42c7d6387deb12830c381458996419db8c925535c17bf670de0b6b3a76400008481151561174357fe5b0460015460005460405180848152602001838152602001828152602001807f5769746864726177616c00000000000000000000000000000000000000000000815250602001935050505060405180910390a16001905061179f565b5b9392505050565b828054600181600116156101000203166002900490600052602060002090601f016020900481019282601f106117e757805160ff1916838001178555611815565b82800160010185558215611815579182015b828111156118145782518255916020019190600101906117f9565b5b5090506118229190611826565b5090565b61184891905b8082111561184457600081600090555060010161182c565b5090565b9056fea165627a7a723058205cc84697fcdbe76d545c020c299065dc867796034b6e3e38068fadb1219fba700029",
  "source": "// SPDX-License-Identifier: MIT\npragma solidity >=0.4.21 <0.7.0;\n\n// import \"github.com/Arachnid/solidity-stringutils/strings.sol\";\ncontract Banking {\n    //  using strings for *;\n\n    uint256 public serialNumber = 0;\n    uint256 public transacNum = 0;\n    uint256 public bankBalance = 0;\n\n     \n    //Defining a struct to store the account details\n    struct Account {\n        uint256 serial;\n        uint createdAt;\n        string name;\n        string location;\n        address creator;\n        //   bytes32 accountName;\n        uint256 balance;\n        bool doesExist;\n    }\n    \n    constructor() public{\n      \n      accounts[0]=Account(0,block.timestamp,'Ethereal','NIT Durgapur',address(this),0,true);\n    }\n\n\n    //Defining a struct to store transaction record\n    struct Transaction {\n        uint256 transacNum;\n        uint currentBalance;\n        uint256 amountTransacted;\n        uint256 createdAt;\n        string transacType;\n        uint accountSerialNumber;\n    }\n\n\n    // All the mappings present in the contract\n    mapping(uint256 => Account) public accounts;\n    mapping(uint256 => Transaction) public transactions;\n\n\n    event AccountCreated(\n        uint _serialNumber,\n        bytes32 _name,\n        bytes32 _location,\n        uint _createdAt,\n        uint _balance\n    );\n\n    event TransactionCompleted(\n        uint _amount,\n        uint _transacNumber,\n        uint _currentAccountSerial,\n        bytes32 _transactionType\n    );\n\n\n    //Error for insuffienct funds used everywhere \n    // error InsufficientFunds(uint _currentAccountSerialNumber,uint _balanceRequested,uint _balanceAvailable,string _transactionType);\n    \n\n    //Function to create account , the 2 ETH balance will be taken from your ethereum account and deposited to the banking contract \n    function createAccount(address payable _creator,string memory _name, string memory _location)\n        public\n        payable\n    {   \n        if(_creator.balance>=3)\n        {\n         serialNumber++;\n        accounts[serialNumber] = Account(\n            serialNumber,\n            block.timestamp,\n            _name,\n            _location,\n            _creator,\n            2,\n            true\n        );\n        bankBalance+=2;\n           transacNum++;\n           transactions[transacNum]=Transaction(transacNum,2,2,block.timestamp,'NewAccount',serialNumber);\n           emit TransactionCompleted(2,transacNum,serialNumber,'NewAccount');\n        }\n\n        // else{\n            \n        //     revert InsufficientFunds(serialNumber,2,_creator.balance-1,'NewAccount');\n        // }\n    }\n\n\n\n\n//Function to add balance to your existing acccount ,the balance will be taken from your ethereum account\n    function addBalance(uint256 _serial, uint256 _amount,address payable _creator) public payable   \n    {   \n\n        if(_creator.balance>=_amount/1000000000000000000+1)\n        {\n        accounts[_serial].balance += _amount/1000000000000000000;\n        bankBalance+=_amount/1000000000000000000;\n        transacNum++;\n        transactions[transacNum]=Transaction(transacNum,accounts[_serial].balance,_amount/1000000000000000000,block.timestamp,'AddingBalance',_serial);\n         emit TransactionCompleted(_amount/1000000000000000000,transacNum,serialNumber,'AddingBalance');\n        }\n\n        // else{\n        //     revert InsufficientFunds(_serial,_amount/1000000000000000000,_creator.balance-1,'AddingBalance');\n        // }\n\n    }\n    \n\n\n\n\n//Function to withdraw balance from your existing accounts, the balance will be transferred to your blockchain account\n    function withdrawBalance (\n        uint _serial,\n        uint256 _amount,\n        address payable _creator\n    ) external payable  \n     returns  (bool _success)  {\n\n       if(accounts[_serial].balance>=_amount/1000000000000000000+1)\n        {\n        _creator.transfer(_amount);\n        accounts[_serial].balance-=_amount/1000000000000000000;\n        bankBalance-=_amount/1000000000000000000;\n        transacNum++;\n        transactions[transacNum]=Transaction(transacNum,accounts[_serial].balance,_amount/1000000000000000000,block.timestamp,'Withdrawal',_serial);\n        emit TransactionCompleted(_amount/1000000000000000000,transacNum,serialNumber,'Withdrawal');\n        return true;\n        }\n\n        // else{\n        //   revert InsufficientFunds(_serial,_amount/1000000000000000000,accounts[_serial].balance-1,'Withdrawal');\n        // }\n    }\n\n\n \n\n\n\n\n\n//Function to virtually send money from one bank account to other \n    function transactAmount(\n        uint256 _amount,\n        uint256 _serial_2,\n        uint256 _serial\n    ) public payable \n    \n     {  \n        if(accounts[_serial].balance>=_amount/1000000000000000000+1)\n      {\n        accounts[_serial].balance -= _amount/1000000000000000000;\n        accounts[_serial_2].balance += _amount/1000000000000000000;\n        transacNum++;\n        emit TransactionCompleted(_amount/1000000000000000000,transacNum,serialNumber,'TransferMoneySent');\n        transactions[transacNum]=Transaction(transacNum,accounts[_serial].balance,_amount/1000000000000000000,block.timestamp,'TransferMoneySent',_serial);\n        transacNum++;\n        emit TransactionCompleted(_amount/1000000000000000000,transacNum,serialNumber,'TransferMoneyReceived');\n        transactions[transacNum]=Transaction (transacNum,accounts[_serial_2].balance,_amount/1000000000000000000,block.timestamp,'TransferMoneyREceeived',_serial_2);\n\n      }\n     \n    //   else{\n    //       revert InsufficientFunds(_serial,_amount/1000000000000000000,accounts[_serial].balance-1,'TransferMoney');\n    //   }\n\n    }\n\n\n\n\n\n\n//Function to get a loan from the bank the accounts will be virtually updated but the actual ETH will only be transferred if you want to withdraw the amount \n    function getLoan(uint256 _amount, uint256 _serial)  public payable  \n    { \n\n\n        if(bankBalance>=_amount/100000000000000000)\n        {\n        accounts[_serial].balance += _amount/1000000000000000000;\n        bankBalance -= _amount/1000000000000000000;\n        transacNum++;\n        transactions[transacNum]=Transaction(transacNum,accounts[_serial].balance,_amount/1000000000000000000,block.timestamp,'LoanTransaction',_serial);\n        emit TransactionCompleted(_amount/1000000000000000000,transacNum,serialNumber,'LoanTransaction');\n        }\n\n        // else{\n        //     revert InsufficientFunds(_serial,_amount/1000000000000000000,bankBalance/10,'LoanTransaction');\n        // }\n\n    }\n\n\n\n\n\n\n\n\n\n\n\n\n//Simple spare function to getBalance of any of the serial accounts won't be of much use but let's see\n    function getBalance(uint256 _serial) public view  \n     returns (uint256) {\n        uint256 bal = accounts[_serial].balance;\n        return bal;\n    }\n\n\n\n//Function to get the msg.sender's ETH balance\n    function getSenderBalance(address payable _account)\n        external\n        view\n        returns (uint256)\n    {\n        return _account.balance;\n    }\n\n\n\n//Function to get the contract's existing balance\n    function getContractBalance() external view returns (uint256) {\n        return address(this).balance;\n    }\n\n\n//Function to get the owner\nfunction getOwner() public view   returns(address){\n  return msg.sender;\n}\n}\n\n\n//Terminal commands for truffle \n// var instance=await Banking.deployed()\n// var owner=await instance.getOwner()\n// var main =await instance.getMainAccount()\n// await instance.sendBalance()\n\n\n",
  "sourcePath": "/home/deucaleon19/Documents/eth_banking_system/contracts/Banking.sol",
  "compiler": {
    "name": "solc",
    "version": "0.5.0+commit.1d4f565a.Emscripten.clang"
  },
  "schemaVersion": "3.0.1",
  "updatedAt": "2021-09-28T22:05:12.960Z",
  "devdoc": {
    "methods": {}
  },
  "userdoc": {
    "methods": {}
  }
}