{
  "contractName": "Banking",
  "abi": [
    {
      "constant": true,
      "inputs": [],
      "name": "bankBalance",
      "outputs": [
        {
          "name": "",
          "type": "uint256"
        }
      ],
      "payable": false,
      "stateMutability": "view",
      "type": "function",
      "signature": "0x28657aa5"
    },
    {
      "constant": true,
      "inputs": [],
      "name": "serialNumber",
      "outputs": [
        {
          "name": "",
          "type": "uint256"
        }
      ],
      "payable": false,
      "stateMutability": "view",
      "type": "function",
      "signature": "0x2a0daeea"
    },
    {
      "constant": true,
      "inputs": [],
      "name": "transacNum",
      "outputs": [
        {
          "name": "",
          "type": "uint256"
        }
      ],
      "payable": false,
      "stateMutability": "view",
      "type": "function",
      "signature": "0x6b17aa83"
    },
    {
      "constant": true,
      "inputs": [
        {
          "name": "",
          "type": "uint256"
        }
      ],
      "name": "transactions",
      "outputs": [
        {
          "name": "transacNum",
          "type": "uint256"
        },
        {
          "name": "currentBalance",
          "type": "uint256"
        },
        {
          "name": "amountTransacted",
          "type": "uint256"
        },
        {
          "name": "createdAt",
          "type": "uint256"
        },
        {
          "name": "transacType",
          "type": "string"
        },
        {
          "name": "accountSerialNumber",
          "type": "uint256"
        }
      ],
      "payable": false,
      "stateMutability": "view",
      "type": "function",
      "signature": "0x9ace38c2"
    },
    {
      "constant": true,
      "inputs": [
        {
          "name": "",
          "type": "uint256"
        }
      ],
      "name": "accounts",
      "outputs": [
        {
          "name": "serial",
          "type": "uint256"
        },
        {
          "name": "createdAt",
          "type": "uint256"
        },
        {
          "name": "name",
          "type": "string"
        },
        {
          "name": "location",
          "type": "string"
        },
        {
          "name": "creator",
          "type": "address"
        },
        {
          "name": "balance",
          "type": "uint256"
        },
        {
          "name": "doesExist",
          "type": "bool"
        }
      ],
      "payable": false,
      "stateMutability": "view",
      "type": "function",
      "signature": "0xf2a40db8"
    },
    {
      "inputs": [],
      "payable": false,
      "stateMutability": "nonpayable",
      "type": "constructor",
      "signature": "constructor"
    },
    {
      "anonymous": false,
      "inputs": [
        {
          "indexed": false,
          "name": "_serialNumber",
          "type": "uint256"
        },
        {
          "indexed": false,
          "name": "_name",
          "type": "bytes32"
        },
        {
          "indexed": false,
          "name": "_location",
          "type": "bytes32"
        },
        {
          "indexed": false,
          "name": "_createdAt",
          "type": "uint256"
        },
        {
          "indexed": false,
          "name": "_balance",
          "type": "uint256"
        }
      ],
      "name": "AccountCreated",
      "type": "event",
      "signature": "0x3ede6b7e4e52b5ab908db14c677a07c2806955dbf82ea6e91045c725ccfc7edf"
    },
    {
      "anonymous": false,
      "inputs": [
        {
          "indexed": false,
          "name": "_amount",
          "type": "uint256"
        },
        {
          "indexed": false,
          "name": "_transacNumber",
          "type": "uint256"
        },
        {
          "indexed": false,
          "name": "_currentAccountSerial",
          "type": "uint256"
        },
        {
          "indexed": false,
          "name": "_transactionType",
          "type": "bytes32"
        }
      ],
      "name": "TransactionCompleted",
      "type": "event",
      "signature": "0x30bf4b72d8fd6ed273a42c7d6387deb12830c381458996419db8c925535c17bf"
    },
    {
      "constant": false,
      "inputs": [
        {
          "name": "_creator",
          "type": "address"
        },
        {
          "name": "_name",
          "type": "string"
        },
        {
          "name": "_location",
          "type": "string"
        }
      ],
      "name": "createAccount",
      "outputs": [],
      "payable": true,
      "stateMutability": "payable",
      "type": "function",
      "signature": "0x4dbe4454"
    },
    {
      "constant": false,
      "inputs": [
        {
          "name": "_serial",
          "type": "uint256"
        },
        {
          "name": "_amount",
          "type": "uint256"
        },
        {
          "name": "_creator",
          "type": "address"
        }
      ],
      "name": "addBalance",
      "outputs": [],
      "payable": true,
      "stateMutability": "payable",
      "type": "function",
      "signature": "0xe15cdcc4"
    },
    {
      "constant": false,
      "inputs": [
        {
          "name": "_serial",
          "type": "uint256"
        },
        {
          "name": "_amount",
          "type": "uint256"
        },
        {
          "name": "_creator",
          "type": "address"
        }
      ],
      "name": "withdrawBalance",
      "outputs": [
        {
          "name": "_success",
          "type": "bool"
        }
      ],
      "payable": false,
      "stateMutability": "nonpayable",
      "type": "function",
      "signature": "0xfb3d4771"
    },
    {
      "constant": false,
      "inputs": [
        {
          "name": "_amount",
          "type": "uint256"
        },
        {
          "name": "_serial_2",
          "type": "uint256"
        },
        {
          "name": "_serial",
          "type": "uint256"
        }
      ],
      "name": "transactAmount",
      "outputs": [],
      "payable": false,
      "stateMutability": "nonpayable",
      "type": "function",
      "signature": "0x3bd8b71d"
    },
    {
      "constant": false,
      "inputs": [
        {
          "name": "_amount",
          "type": "uint256"
        },
        {
          "name": "_serial",
          "type": "uint256"
        }
      ],
      "name": "getLoan",
      "outputs": [],
      "payable": true,
      "stateMutability": "payable",
      "type": "function",
      "signature": "0x06789aba"
    },
    {
      "constant": false,
      "inputs": [
        {
          "name": "_installment",
          "type": "uint256"
        },
        {
          "name": "_serial",
          "type": "uint256"
        },
        {
          "name": "_creator",
          "type": "address"
        }
      ],
      "name": "retrieveLoan",
      "outputs": [],
      "payable": true,
      "stateMutability": "payable",
      "type": "function",
      "signature": "0xb9cc1d97"
    },
    {
      "constant": true,
      "inputs": [
        {
          "name": "_serial",
          "type": "uint256"
        }
      ],
      "name": "getBalance",
      "outputs": [
        {
          "name": "",
          "type": "uint256"
        }
      ],
      "payable": false,
      "stateMutability": "view",
      "type": "function",
      "signature": "0x1e010439"
    },
    {
      "constant": true,
      "inputs": [
        {
          "name": "_account",
          "type": "address"
        }
      ],
      "name": "getSenderBalance",
      "outputs": [
        {
          "name": "",
          "type": "uint256"
        }
      ],
      "payable": false,
      "stateMutability": "view",
      "type": "function",
      "signature": "0x7cfa4dbc"
    },
    {
      "constant": true,
      "inputs": [],
      "name": "getContractBalance",
      "outputs": [
        {
          "name": "",
          "type": "uint256"
        }
      ],
      "payable": false,
      "stateMutability": "view",
      "type": "function",
      "signature": "0x6f9fb98a"
    },
    {
      "constant": true,
      "inputs": [],
      "name": "getOwner",
      "outputs": [
        {
          "name": "",
          "type": "address"
        }
      ],
      "payable": false,
      "stateMutability": "view",
      "type": "function",
      "signature": "0x893d20e8"
    }
  ],
  "bytecode": "0x608060405260008055600060015560006002553480156200001f57600080fd5b5060e060405190810160405280600081526020014281526020016040805190810160405280600881526020017f457468657265616c00000000000000000000000000000000000000000000000081525081526020016040805190810160405280600c81526020017f4e4954204475726761707572000000000000000000000000000000000000000081525081526020013073ffffffffffffffffffffffffffffffffffffffff168152602001600081526020016001151581525060036000808152602001908152602001600020600082015181600001556020820151816001015560408201518160020190805190602001906200011e929190620001b8565b5060608201518160030190805190602001906200013d929190620001b8565b5060808201518160040160006101000a81548173ffffffffffffffffffffffffffffffffffffffff021916908373ffffffffffffffffffffffffffffffffffffffff16021790555060a0820151816005015560c08201518160060160006101000a81548160ff02191690831515021790555090505062000267565b828054600181600116156101000203166002900490600052602060002090601f016020900481019282601f10620001fb57805160ff19168380011785556200022c565b828001600101855582156200022c579182015b828111156200022b5782518255916020019190600101906200020e565b5b5090506200023b91906200023f565b5090565b6200026491905b808211156200026057600081600090555060010162000246565b5090565b90565b611cb780620002776000396000f3fe6080604052600436106100db576000357c0100000000000000000000000000000000000000000000000000000000900463ffffffff16806306789aba146100e05780631e0104391461011857806328657aa5146101675780632a0daeea146101925780633bd8b71d146101bd5780634dbe44541461020c5780636b17aa831461037e5780636f9fb98a146103a95780637cfa4dbc146103d4578063893d20e8146104395780639ace38c214610490578063b9cc1d9714610567578063e15cdcc4146105bf578063f2a40db814610617578063fb3d47711461078a575b600080fd5b610116600480360360408110156100f657600080fd5b810190808035906020019092919080359060200190929190505050610807565b005b34801561012457600080fd5b506101516004803603602081101561013b57600080fd5b81019080803590602001909291905050506109cd565b6040518082815260200191505060405180910390f35b34801561017357600080fd5b5061017c6109f2565b6040518082815260200191505060405180910390f35b34801561019e57600080fd5b506101a76109f8565b6040518082815260200191505060405180910390f35b3480156101c957600080fd5b5061020a600480360360608110156101e057600080fd5b810190808035906020019092919080359060200190929190803590602001909291905050506109fe565b005b61037c6004803603606081101561022257600080fd5b81019080803573ffffffffffffffffffffffffffffffffffffffff1690602001909291908035906020019064010000000081111561025f57600080fd5b82018360208201111561027157600080fd5b8035906020019184600183028401116401000000008311171561029357600080fd5b91908080601f016020809104026020016040519081016040528093929190818152602001838380828437600081840152601f19601f820116905080830192505050505050509192919290803590602001906401000000008111156102f657600080fd5b82018360208201111561030857600080fd5b8035906020019184600183028401116401000000008311171561032a57600080fd5b91908080601f016020809104026020016040519081016040528093929190818152602001838380828437600081840152601f19601f820116905080830192505050505050509192919290505050610e33565b005b34801561038a57600080fd5b50610393611169565b6040518082815260200191505060405180910390f35b3480156103b557600080fd5b506103be61116f565b6040518082815260200191505060405180910390f35b3480156103e057600080fd5b50610423600480360360208110156103f757600080fd5b81019080803573ffffffffffffffffffffffffffffffffffffffff16906020019092919050505061118e565b6040518082815260200191505060405180910390f35b34801561044557600080fd5b5061044e6111af565b604051808273ffffffffffffffffffffffffffffffffffffffff1673ffffffffffffffffffffffffffffffffffffffff16815260200191505060405180910390f35b34801561049c57600080fd5b506104c9600480360360208110156104b357600080fd5b81019080803590602001909291905050506111b7565b6040518087815260200186815260200185815260200184815260200180602001838152602001828103825284818151815260200191508051906020019080838360005b8381101561052757808201518184015260208101905061050c565b50505050905090810190601f1680156105545780820380516001836020036101000a031916815260200191505b5097505050505050505060405180910390f35b6105bd6004803603606081101561057d57600080fd5b810190808035906020019092919080359060200190929190803573ffffffffffffffffffffffffffffffffffffffff16906020019092919050505061128b565b005b610615600480360360608110156105d557600080fd5b810190808035906020019092919080359060200190929190803573ffffffffffffffffffffffffffffffffffffffff1690602001909291905050506114cf565b005b34801561062357600080fd5b506106506004803603602081101561063a57600080fd5b8101908080359060200190929190505050611764565b6040518088815260200187815260200180602001806020018673ffffffffffffffffffffffffffffffffffffffff1673ffffffffffffffffffffffffffffffffffffffff16815260200185815260200184151515158152602001838103835288818151815260200191508051906020019080838360005b838110156106e25780820151818401526020810190506106c7565b50505050905090810190601f16801561070f5780820380516001836020036101000a031916815260200191505b50838103825287818151815260200191508051906020019080838360005b8381101561074857808201518184015260208101905061072d565b50505050905090810190601f1680156107755780820380516001836020036101000a031916815260200191505b50995050505050505050505060405180910390f35b34801561079657600080fd5b506107ed600480360360608110156107ad57600080fd5b810190808035906020019092919080359060200190929190803573ffffffffffffffffffffffffffffffffffffffff169060200190929190505050611903565b604051808215151515815260200191505060405180910390f35b670de0b6b3a76400008281151561081a57fe5b04600360008381526020019081526020016000206005016000828254019250508190555060016000815480929190600101919050555060c060405190810160405280600154815260200160036000848152602001908152602001600020600501548152602001670de0b6b3a76400008481151561089357fe5b0481526020014281526020016040805190810160405280600f81526020017f4c6f616e5472616e73616374696f6e0000000000000000000000000000000000815250815260200182815250600460006001548152602001908152602001600020600082015181600001556020820151816001015560408201518160020155606082015181600301556080820151816004019080519060200190610937929190611be6565b5060a082015181600501559050507f30bf4b72d8fd6ed273a42c7d6387deb12830c381458996419db8c925535c17bf670de0b6b3a76400008381151561097957fe5b046001548360405180848152602001838152602001828152602001807f4c6f616e5472616e73616374696f6e0000000000000000000000000000000000815250602001935050505060405180910390a15050565b6000806003600084815260200190815260200160002060050154905080915050919050565b60025481565b60005481565b6001670de0b6b3a764000084811515610a1357fe5b04016003600083815260200190815260200160002060050154101515610dc057670de0b6b3a764000083811515610a4657fe5b046003600083815260200190815260200160002060050160008282540392505081905550670de0b6b3a764000083811515610a7d57fe5b0460036000848152602001908152602001600020600501600082825401925050819055506001600081548092919060010191905055507f30bf4b72d8fd6ed273a42c7d6387deb12830c381458996419db8c925535c17bf670de0b6b3a764000084811515610ae757fe5b0460015460005460405180848152602001838152602001828152602001807f5472616e736665724d6f6e657953656e74000000000000000000000000000000815250602001935050505060405180910390a160c060405190810160405280600154815260200160036000848152602001908152602001600020600501548152602001670de0b6b3a764000085811515610b7c57fe5b0481526020014281526020016040805190810160405280601181526020017f5472616e736665724d6f6e657953656e74000000000000000000000000000000815250815260200182815250600460006001548152602001908152602001600020600082015181600001556020820151816001015560408201518160020155606082015181600301556080820151816004019080519060200190610c20929190611be6565b5060a082015181600501559050506001600081548092919060010191905055507f30bf4b72d8fd6ed273a42c7d6387deb12830c381458996419db8c925535c17bf670de0b6b3a764000084811515610c7457fe5b0460015460005460405180848152602001838152602001828152602001807f5472616e736665724d6f6e657952656365697665640000000000000000000000815250602001935050505060405180910390a160c060405190810160405280600154815260200160036000858152602001908152602001600020600501548152602001670de0b6b3a764000085811515610d0957fe5b0481526020014281526020016040805190810160405280601581526020017f5472616e736665724d6f6e657952656365697665640000000000000000000000815250815260200183815250600460006001548152602001908152602001600020600082015181600001556020820151816001015560408201518160020155606082015181600301556080820151816004019080519060200190610dad929190611be6565b5060a08201518160050155905050610e2e565b6040517f08c379a00000000000000000000000000000000000000000000000000000000081526004018080602001828103825260128152602001807f496e73756666696369656e742046756e6473000000000000000000000000000081525060200191505060405180910390fd5b505050565b60038373ffffffffffffffffffffffffffffffffffffffff16311015156110f657600080815480929190600101919050555060e06040519081016040528060005481526020014281526020018381526020018281526020018473ffffffffffffffffffffffffffffffffffffffff1681526020016002815260200160011515815250600360008054815260200190815260200160002060008201518160000155602082015181600101556040820151816002019080519060200190610ef9929190611be6565b506060820151816003019080519060200190610f16929190611be6565b5060808201518160040160006101000a81548173ffffffffffffffffffffffffffffffffffffffff021916908373ffffffffffffffffffffffffffffffffffffffff16021790555060a0820151816005015560c08201518160060160006101000a81548160ff0219169083151502179055509050506002806000828254019250508190555060016000815480929190600101919050555060c060405190810160405280600154815260200160028152602001600281526020014281526020016040805190810160405280600a81526020017f4e65774163636f756e7400000000000000000000000000000000000000000000815250815260200160005481525060046000600154815260200190815260200160002060008201518160000155602082015181600101556040820151816002015560608201518160030155608082015181600401908051906020019061106f929190611be6565b5060a082015181600501559050507f30bf4b72d8fd6ed273a42c7d6387deb12830c381458996419db8c925535c17bf600260015460005460405180848152602001838152602001828152602001807f4e65774163636f756e7400000000000000000000000000000000000000000000815250602001935050505060405180910390a1611164565b6040517f08c379a00000000000000000000000000000000000000000000000000000000081526004018080602001828103825260128152602001807f496e73756666696369656e742046756e6473000000000000000000000000000081525060200191505060405180910390fd5b505050565b60015481565b60003073ffffffffffffffffffffffffffffffffffffffff1631905090565b60008173ffffffffffffffffffffffffffffffffffffffff16319050919050565b600033905090565b6004602052806000526040600020600091509050806000015490806001015490806002015490806003015490806004018054600181600116156101000203166002900480601f01602080910402602001604051908101604052809291908181526020018280546001816001161561010002031660029004801561127b5780601f106112505761010080835404028352916020019161127b565b820191906000526020600020905b81548152906001019060200180831161125e57829003601f168201915b5050505050908060050154905086565b6001670de0b6b3a7640000848115156112a057fe5b0401600360008481526020019081526020016000206005015410151561148757670de0b6b3a7640000838115156112d357fe5b04600360008481526020019081526020016000206005016000828254039250508190555060016000815480929190600101919050555060c060405190810160405280600154815260200160036000858152602001908152602001600020600501548152602001670de0b6b3a76400008581151561134c57fe5b0481526020014281526020016040805190810160405280600d81526020017f4c6f616e52657472696576616c000000000000000000000000000000000000008152508152602001838152506004600060015481526020019081526020016000206000820151816000015560208201518160010155604082015181600201556060820151816003015560808201518160040190805190602001906113f0929190611be6565b5060a082015181600501559050507f30bf4b72d8fd6ed273a42c7d6387deb12830c381458996419db8c925535c17bf670de0b6b3a76400008481151561143257fe5b046001548460405180848152602001838152602001828152602001807f4c6f616e52657472696576616c00000000000000000000000000000000000000815250602001935050505060405180910390a16114ca565b6114928284836114cf565b670de0b6b3a7640000838115156114a557fe5b0460036000848152602001908152602001600020600501600082825403925050819055505b505050565b6001670de0b6b3a7640000838115156114e457fe5b04018173ffffffffffffffffffffffffffffffffffffffff16311015156116f157670de0b6b3a76400008281151561151857fe5b046003600085815260200190815260200160002060050160008282540192505081905550670de0b6b3a76400008281151561154f57fe5b0460026000828254019250508190555060016000815480929190600101919050555060c060405190810160405280600154815260200160036000868152602001908152602001600020600501548152602001670de0b6b3a7640000848115156115b457fe5b0481526020014281526020016040805190810160405280600d81526020017f416464696e6742616c616e636500000000000000000000000000000000000000815250815260200184815250600460006001548152602001908152602001600020600082015181600001556020820151816001015560408201518160020155606082015181600301556080820151816004019080519060200190611658929190611be6565b5060a082015181600501559050507f30bf4b72d8fd6ed273a42c7d6387deb12830c381458996419db8c925535c17bf670de0b6b3a76400008381151561169a57fe5b0460015460005460405180848152602001838152602001828152602001807f416464696e6742616c616e636500000000000000000000000000000000000000815250602001935050505060405180910390a161175f565b6040517f08c379a00000000000000000000000000000000000000000000000000000000081526004018080602001828103825260128152602001807f496e73756666696369656e742046756e6473000000000000000000000000000081525060200191505060405180910390fd5b505050565b6003602052806000526040600020600091509050806000015490806001015490806002018054600181600116156101000203166002900480601f01602080910402602001604051908101604052809291908181526020018280546001816001161561010002031660029004801561181c5780601f106117f15761010080835404028352916020019161181c565b820191906000526020600020905b8154815290600101906020018083116117ff57829003601f168201915b505050505090806003018054600181600116156101000203166002900480601f0160208091040260200160405190810160405280929190818152602001828054600181600116156101000203166002900480156118ba5780601f1061188f576101008083540402835291602001916118ba565b820191906000526020600020905b81548152906001019060200180831161189d57829003601f168201915b5050505050908060040160009054906101000a900473ffffffffffffffffffffffffffffffffffffffff16908060050154908060060160009054906101000a900460ff16905087565b60006001670de0b6b3a76400008481151561191a57fe5b04016003600086815260200190815260200160002060050154101515611b71578173ffffffffffffffffffffffffffffffffffffffff166108fc849081150290604051600060405180830381858888f19350505050158015611980573d6000803e3d6000fd5b50670de0b6b3a76400008381151561199457fe5b046003600086815260200190815260200160002060050160008282540392505081905550670de0b6b3a7640000838115156119cb57fe5b0460026000828254039250508190555060016000815480929190600101919050555060c060405190810160405280600154815260200160036000878152602001908152602001600020600501548152602001670de0b6b3a764000085811515611a3057fe5b0481526020014281526020016040805190810160405280600a81526020017f5769746864726177616c00000000000000000000000000000000000000000000815250815260200185815250600460006001548152602001908152602001600020600082015181600001556020820151816001015560408201518160020155606082015181600301556080820151816004019080519060200190611ad4929190611be6565b5060a082015181600501559050507f30bf4b72d8fd6ed273a42c7d6387deb12830c381458996419db8c925535c17bf670de0b6b3a764000084811515611b1657fe5b0460015460005460405180848152602001838152602001828152602001807f5769746864726177616c00000000000000000000000000000000000000000000815250602001935050505060405180910390a160019050611bdf565b6040517f08c379a00000000000000000000000000000000000000000000000000000000081526004018080602001828103825260128152602001807f496e73756666696369656e742046756e6473000000000000000000000000000081525060200191505060405180910390fd5b9392505050565b828054600181600116156101000203166002900490600052602060002090601f016020900481019282601f10611c2757805160ff1916838001178555611c55565b82800160010185558215611c55579182015b82811115611c54578251825591602001919060010190611c39565b5b509050611c629190611c66565b5090565b611c8891905b80821115611c84576000816000905550600101611c6c565b5090565b9056fea165627a7a723058202f762ba7136fe83650bf15857c7aa0f2b6cc7dec871150fd01e8058e0b1331be0029",
  "source": "// SPDX-License-Identifier: MIT\npragma solidity >=0.4.21 <0.7.0;\n\n// import \"github.com/Arachnid/solidity-stringutils/strings.sol\";\ncontract Banking {\n    //  using strings for *;\n\n    uint256 public serialNumber = 0;\n    uint256 public transacNum = 0;\n    uint256 public bankBalance = 0;\n\n    //Defining a struct to store the account details\n    struct Account {\n        uint256 serial;\n        uint256 createdAt;\n        string name;\n        string location;\n        address creator;\n        //   bytes32 accountName;\n        uint256 balance;\n        bool doesExist;\n    }\n\n    constructor() public {\n        accounts[0] = Account(\n            0,\n            block.timestamp,\n            \"Ethereal\",\n            \"NIT Durgapur\",\n            address(this),\n            0,\n            true\n        );\n    }\n\n    //Defining a struct to store transaction record\n    struct Transaction {\n        uint256 transacNum;\n        uint256 currentBalance;\n        uint256 amountTransacted;\n        uint256 createdAt;\n        string transacType;\n        uint256 accountSerialNumber;\n    }\n    \n\n\n\n    // All the mappings present in the contract\n    mapping(uint256 => Account) public accounts;\n    mapping(uint256 => Transaction) public transactions;\n\n    // error InsufficientFunds(uint _currentAccountSerialNumber,uint _balanceRequested,uint _balanceAvailable,string _transactionType);\n\n    event AccountCreated(\n        uint256 _serialNumber,\n        bytes32 _name,\n        bytes32 _location,\n        uint256 _createdAt,\n        uint256 _balance\n    );\n\n    event TransactionCompleted(\n        uint256 _amount,\n        uint256 _transacNumber,\n        uint256 _currentAccountSerial,\n        bytes32 _transactionType\n    );\n\n\n\n    //Function to create account , the 2 ETH balance will be taken from your ethereum account and deposited to the banking contract\n    function createAccount(\n        address payable _creator,\n        string memory _name,\n        string memory _location\n    ) public payable {\n        if (_creator.balance >= 3) {\n            serialNumber++;\n            accounts[serialNumber] = Account(\n                serialNumber,\n                block.timestamp,\n                _name,\n                _location,\n                _creator,\n                2,\n                true\n            );\n            bankBalance += 2;\n            transacNum++;\n            transactions[transacNum] = Transaction(\n                transacNum,\n                2,\n                2,\n                block.timestamp,\n                \"NewAccount\",\n                serialNumber\n            );\n            emit TransactionCompleted(\n                2,\n                transacNum,\n                serialNumber,\n                \"NewAccount\"\n            );\n        } else {\n            revert(\"Insufficient Funds\");\n            // revert InsufficientFunds(serialNumber,2,_creator.balance-1,'NewAccount');\n        }\n    }\n\n\n\n\n    //Function to add balance to your existing acccount ,the balance will be taken from your ethereum account\n    function addBalance(\n        uint256 _serial,\n        uint256 _amount,\n        address payable _creator\n    ) public payable {\n        if (_creator.balance >= _amount / 1000000000000000000 + 1) {\n            accounts[_serial].balance += _amount / 1000000000000000000;\n            bankBalance += _amount / 1000000000000000000;\n            transacNum++;\n\n            transactions[transacNum] = Transaction(\n                transacNum,\n                accounts[_serial].balance,\n                _amount / 1000000000000000000,\n                block.timestamp,\n                \"AddingBalance\",\n                _serial\n            );\n\n            emit TransactionCompleted(\n                _amount / 1000000000000000000,\n                transacNum,\n                serialNumber,\n                \"AddingBalance\"\n            );\n        } else {\n            revert(\"Insufficient Funds\");\n            // revert InsufficientFunds(_serial,_amount/1000000000000000000,_creator.balance-1,'AddingBalance');\n        }\n    }\n\n\n\n    //Function to withdraw balance from your existing accounts, the balance will be transferred to your blockchain account\n    function withdrawBalance(\n        uint256 _serial,\n        uint256 _amount,\n        address payable _creator\n    ) \n    external returns (bool _success) {\n        if (accounts[_serial].balance >= _amount / 1000000000000000000 + 1) {\n            _creator.transfer(_amount);\n            accounts[_serial].balance -= _amount / 1000000000000000000;\n            bankBalance -= _amount / 1000000000000000000;\n            transacNum++;\n            transactions[transacNum] = Transaction(\n                transacNum,\n                accounts[_serial].balance,\n                _amount / 1000000000000000000,\n                block.timestamp,\n                \"Withdrawal\",\n                _serial\n            );\n            emit TransactionCompleted(\n                _amount / 1000000000000000000,\n                transacNum,\n                serialNumber,\n                \"Withdrawal\"\n            );\n            return true;\n        } else {\n            revert(\"Insufficient Funds\");\n            //   revert InsufficientFunds(_serial,_amount/1000000000000000000,accounts[_serial].balance-1,'Withdrawal');\n        }\n    }\n\n\n\n    //Function to virtually send money from one bank account to other\n    function transactAmount(\n        uint256 _amount,\n        uint256 _serial_2,\n        uint256 _serial\n    ) public {\n        if (accounts[_serial].balance >= _amount / 1000000000000000000 + 1) {\n            accounts[_serial].balance -= _amount / 1000000000000000000;\n            accounts[_serial_2].balance += _amount / 1000000000000000000;\n            transacNum++;\n            emit TransactionCompleted(\n                _amount / 1000000000000000000,\n                transacNum,\n                serialNumber,\n                \"TransferMoneySent\"\n            );\n            transactions[transacNum] = Transaction(\n                transacNum,\n                accounts[_serial].balance,\n                _amount / 1000000000000000000,\n                block.timestamp,\n                \"TransferMoneySent\",\n                _serial\n            );\n            transacNum++;\n            emit TransactionCompleted(\n                _amount / 1000000000000000000,\n                transacNum,\n                serialNumber,\n                \"TransferMoneyReceived\"\n            );\n            transactions[transacNum] = Transaction(\n                transacNum,\n                accounts[_serial_2].balance,\n                _amount / 1000000000000000000,\n                block.timestamp,\n                \"TransferMoneyReceived\",\n                _serial_2\n            );\n        } else {\n            revert(\"Insufficient Funds\");\n            //   revert InsufficientFunds(_serial,_amount/1000000000000000000,accounts[_serial].balance-1,'TransferMoney');\n        }\n    }\n\n\n\n    //Function to get a loan from the bank the accounts will be virtually updated but the actual ETH will only be transferred if you want to withdraw the amount\n    function getLoan(uint256 _amount, uint256 _serial) public payable {\n        // if (bankBalance >= _amount / 100000000000000000) {\n            accounts[_serial].balance += _amount / 1000000000000000000;\n            transacNum++;\n            transactions[transacNum] = Transaction(\n                transacNum,\n                accounts[_serial].balance,\n                _amount / 1000000000000000000,\n                block.timestamp,\n                \"LoanTransaction\",\n                _serial\n            );\n            emit TransactionCompleted(\n                _amount / 1000000000000000000,\n                transacNum,\n                _serial,\n                \"LoanTransaction\"\n            );\n        // }\n        \n        //  else {\n        //     revert(\"Insufficient Funds\");\n        //     // revert InsufficientFunds(_serial,_amount/1000000000000000000,bankBalance/10,'LoanTransaction');\n        // }\n    }\n\n    function retrieveLoan(\n        uint256 _installment,\n        uint256 _serial,\n        address payable _creator\n    ) public payable {\n        if (\n            accounts[_serial].balance >=\n            (_installment / 1000000000000000000) + 1\n        ) {\n            accounts[_serial].balance -= _installment / 1000000000000000000;\n            transacNum++;\n            transactions[transacNum] = Transaction(\n                transacNum,\n                accounts[_serial].balance,\n                _installment / 1000000000000000000,\n                block.timestamp,\n                \"LoanRetrieval\",\n                _serial\n            );\n            emit TransactionCompleted(\n                _installment / 1000000000000000000,\n                transacNum,\n                _serial,\n                \"LoanRetrieval\"\n            );\n        } else {\n            addBalance(_serial, _installment, _creator);\n\n            accounts[_serial].balance -= _installment / 1000000000000000000;\n        }\n    }\n\n    \n\n    //Simple spare function to getBalance of any of the serial accounts won't be of much use but let's see\n    function getBalance(uint256 _serial) public view returns (uint256) {\n        uint256 bal = accounts[_serial].balance;\n        return bal;\n    }\n\n\n\n    //Function to get the msg.sender's ETH balance\n    function getSenderBalance(address payable _account)\n        external\n        view\n        returns (uint256)\n    {\n        return _account.balance;\n    }\n\n    //Function to get the contract's existing balance\n    function getContractBalance() external view returns (uint256) {\n        return address(this).balance;\n    }\n\n    //Function to get the owner\n    function getOwner() public view returns (address) {\n        return msg.sender;\n    }\n}\n\n\n",
  "sourcePath": "/home/deucaleon19/Documents/projects/eth_banking_system/contracts/Banking.sol",
  "compiler": {
    "name": "solc",
    "version": "0.5.0+commit.1d4f565a.Emscripten.clang"
  },
  "schemaVersion": "3.0.1",
  "updatedAt": "2021-10-17T04:05:14.522Z",
  "devdoc": {
    "methods": {}
  },
  "userdoc": {
    "methods": {}
  }
}