{
  "contractName": "Banking",
  "abi": [
    {
      "constant": true,
      "inputs": [],
      "name": "bankBalance",
      "outputs": [
        {
          "name": "",
          "type": "uint256"
        }
      ],
      "payable": false,
      "stateMutability": "view",
      "type": "function",
      "signature": "0x28657aa5"
    },
    {
      "constant": true,
      "inputs": [],
      "name": "serialNumber",
      "outputs": [
        {
          "name": "",
          "type": "uint256"
        }
      ],
      "payable": false,
      "stateMutability": "view",
      "type": "function",
      "signature": "0x2a0daeea"
    },
    {
      "constant": true,
      "inputs": [
        {
          "name": "",
          "type": "uint256"
        }
      ],
      "name": "balances",
      "outputs": [
        {
          "name": "",
          "type": "uint256"
        }
      ],
      "payable": false,
      "stateMutability": "view",
      "type": "function",
      "signature": "0x4903b0d1"
    },
    {
      "constant": true,
      "inputs": [],
      "name": "transacNum",
      "outputs": [
        {
          "name": "",
          "type": "uint256"
        }
      ],
      "payable": false,
      "stateMutability": "view",
      "type": "function",
      "signature": "0x6b17aa83"
    },
    {
      "constant": true,
      "inputs": [
        {
          "name": "",
          "type": "uint256"
        }
      ],
      "name": "transactions",
      "outputs": [
        {
          "name": "transac",
          "type": "uint256"
        },
        {
          "name": "senderAccountName",
          "type": "string"
        },
        {
          "name": "receiverAccountName",
          "type": "string"
        },
        {
          "name": "amountTransacted",
          "type": "uint256"
        },
        {
          "name": "transactedAt",
          "type": "uint256"
        }
      ],
      "payable": false,
      "stateMutability": "view",
      "type": "function",
      "signature": "0x9ace38c2"
    },
    {
      "constant": true,
      "inputs": [
        {
          "name": "",
          "type": "uint256"
        }
      ],
      "name": "accounts",
      "outputs": [
        {
          "name": "serial",
          "type": "uint256"
        },
        {
          "name": "createdAt",
          "type": "uint256"
        },
        {
          "name": "name",
          "type": "string"
        },
        {
          "name": "location",
          "type": "string"
        },
        {
          "name": "creator",
          "type": "address"
        },
        {
          "name": "balance",
          "type": "uint256"
        },
        {
          "name": "doesExist",
          "type": "bool"
        }
      ],
      "payable": false,
      "stateMutability": "view",
      "type": "function",
      "signature": "0xf2a40db8"
    },
    {
      "anonymous": false,
      "inputs": [
        {
          "indexed": false,
          "name": "_serialNumber",
          "type": "uint256"
        },
        {
          "indexed": false,
          "name": "_accountName",
          "type": "bytes32"
        },
        {
          "indexed": false,
          "name": "_name",
          "type": "bytes32"
        },
        {
          "indexed": false,
          "name": "_balance",
          "type": "uint256"
        }
      ],
      "name": "AccountCreated",
      "type": "event",
      "signature": "0x489f53c6c3ae7e50a0659344a2a98457cbf11cc6d6ee3036aac001413cabf65a"
    },
    {
      "anonymous": false,
      "inputs": [
        {
          "indexed": false,
          "name": "_balance",
          "type": "uint256"
        },
        {
          "indexed": false,
          "name": "_transacNumber",
          "type": "uint256"
        },
        {
          "indexed": false,
          "name": "_receiver",
          "type": "bytes32"
        },
        {
          "indexed": false,
          "name": "_sender",
          "type": "bytes32"
        }
      ],
      "name": "TransactionCompleted",
      "type": "event",
      "signature": "0x41527871343696a107a542384004299ce002df647a9885de78d23188e4526c0d"
    },
    {
      "anonymous": false,
      "inputs": [
        {
          "indexed": false,
          "name": "_amount",
          "type": "uint256"
        },
        {
          "indexed": false,
          "name": "_accountName",
          "type": "bytes32"
        }
      ],
      "name": "LoanGenerated",
      "type": "event",
      "signature": "0x641a32bdd10787f44649233bb575e663202d32757ca17d721f4baf7378cbc80f"
    },
    {
      "constant": false,
      "inputs": [
        {
          "name": "_creator",
          "type": "address"
        }
      ],
      "name": "accountLogin",
      "outputs": [],
      "payable": false,
      "stateMutability": "nonpayable",
      "type": "function",
      "signature": "0xec1f5929"
    },
    {
      "constant": false,
      "inputs": [
        {
          "name": "_creator",
          "type": "address"
        },
        {
          "name": "_name",
          "type": "string"
        },
        {
          "name": "_location",
          "type": "string"
        }
      ],
      "name": "createAccount",
      "outputs": [],
      "payable": true,
      "stateMutability": "payable",
      "type": "function",
      "signature": "0x4dbe4454"
    },
    {
      "constant": false,
      "inputs": [
        {
          "name": "_serial",
          "type": "uint256"
        },
        {
          "name": "_amount",
          "type": "uint256"
        }
      ],
      "name": "addBalance",
      "outputs": [],
      "payable": true,
      "stateMutability": "payable",
      "type": "function",
      "signature": "0xa40398a6"
    },
    {
      "constant": false,
      "inputs": [
        {
          "name": "_serial",
          "type": "uint256"
        },
        {
          "name": "_amount",
          "type": "uint256"
        },
        {
          "name": "_ownerAccount",
          "type": "address"
        }
      ],
      "name": "withdrawBalance",
      "outputs": [
        {
          "name": "_success",
          "type": "bool"
        }
      ],
      "payable": true,
      "stateMutability": "payable",
      "type": "function",
      "signature": "0xfb3d4771"
    },
    {
      "constant": false,
      "inputs": [
        {
          "name": "_amount",
          "type": "uint256"
        },
        {
          "name": "_serial_2",
          "type": "uint256"
        },
        {
          "name": "_serial",
          "type": "uint256"
        }
      ],
      "name": "transactAmount",
      "outputs": [],
      "payable": true,
      "stateMutability": "payable",
      "type": "function",
      "signature": "0x3bd8b71d"
    },
    {
      "constant": false,
      "inputs": [
        {
          "name": "_amount",
          "type": "uint256"
        },
        {
          "name": "_serial",
          "type": "uint256"
        }
      ],
      "name": "getLoan",
      "outputs": [],
      "payable": true,
      "stateMutability": "payable",
      "type": "function",
      "signature": "0x06789aba"
    },
    {
      "constant": true,
      "inputs": [
        {
          "name": "_serial",
          "type": "uint256"
        }
      ],
      "name": "getBalance",
      "outputs": [
        {
          "name": "",
          "type": "uint256"
        }
      ],
      "payable": false,
      "stateMutability": "view",
      "type": "function",
      "signature": "0x1e010439"
    },
    {
      "constant": true,
      "inputs": [
        {
          "name": "_account",
          "type": "address"
        }
      ],
      "name": "getSenderBalance",
      "outputs": [
        {
          "name": "",
          "type": "uint256"
        }
      ],
      "payable": false,
      "stateMutability": "view",
      "type": "function",
      "signature": "0x7cfa4dbc"
    },
    {
      "constant": true,
      "inputs": [],
      "name": "getContractBalance",
      "outputs": [
        {
          "name": "",
          "type": "uint256"
        }
      ],
      "payable": false,
      "stateMutability": "view",
      "type": "function",
      "signature": "0x6f9fb98a"
    },
    {
      "constant": true,
      "inputs": [],
      "name": "getOwner",
      "outputs": [
        {
          "name": "",
          "type": "address"
        }
      ],
      "payable": false,
      "stateMutability": "view",
      "type": "function",
      "signature": "0x893d20e8"
    }
  ],
  "bytecode": "0x608060405260006001556000600255600060035534801561001f57600080fd5b506113b48061002f6000396000f3fe6080604052600436106100e6576000357c0100000000000000000000000000000000000000000000000000000000900463ffffffff16806306789aba146100eb5780631e0104391461012357806328657aa5146101725780632a0daeea1461019d5780633bd8b71d146101c85780634903b0d11461020a5780634dbe4454146102595780636b17aa83146103cb5780636f9fb98a146103f65780637cfa4dbc14610421578063893d20e8146104865780639ace38c2146104dd578063a40398a614610612578063ec1f59291461064a578063f2a40db81461069b578063fb3d47711461080e575b600080fd5b6101216004803603604081101561010157600080fd5b81019080803590602001909291908035906020019092919050505061087e565b005b34801561012f57600080fd5b5061015c6004803603602081101561014657600080fd5b810190808035906020019092919050505061096b565b6040518082815260200191505060405180910390f35b34801561017e57600080fd5b506101876109ec565b6040518082815260200191505060405180910390f35b3480156101a957600080fd5b506101b26109f2565b6040518082815260200191505060405180910390f35b610208600480360360608110156101de57600080fd5b810190808035906020019092919080359060200190929190803590602001909291905050506109f8565b005b34801561021657600080fd5b506102436004803603602081101561022d57600080fd5b8101908080359060200190929190505050610ae2565b6040518082815260200191505060405180910390f35b6103c96004803603606081101561026f57600080fd5b81019080803573ffffffffffffffffffffffffffffffffffffffff169060200190929190803590602001906401000000008111156102ac57600080fd5b8201836020820111156102be57600080fd5b803590602001918460018302840111640100000000831117156102e057600080fd5b91908080601f016020809104026020016040519081016040528093929190818152602001838380828437600081840152601f19601f8201169050808301925050505050505091929192908035906020019064010000000081111561034357600080fd5b82018360208201111561035557600080fd5b8035906020019184600183028401116401000000008311171561037757600080fd5b91908080601f016020809104026020016040519081016040528093929190818152602001838380828437600081840152601f19601f820116905080830192505050505050509192919290505050610afa565b005b3480156103d757600080fd5b506103e0610cc8565b6040518082815260200191505060405180910390f35b34801561040257600080fd5b5061040b610cce565b6040518082815260200191505060405180910390f35b34801561042d57600080fd5b506104706004803603602081101561044457600080fd5b81019080803573ffffffffffffffffffffffffffffffffffffffff169060200190929190505050610ced565b6040518082815260200191505060405180910390f35b34801561049257600080fd5b5061049b610d0e565b604051808273ffffffffffffffffffffffffffffffffffffffff1673ffffffffffffffffffffffffffffffffffffffff16815260200191505060405180910390f35b3480156104e957600080fd5b506105166004803603602081101561050057600080fd5b8101908080359060200190929190505050610d71565b604051808681526020018060200180602001858152602001848152602001838103835287818151815260200191508051906020019080838360005b8381101561056c578082015181840152602081019050610551565b50505050905090810190601f1680156105995780820380516001836020036101000a031916815260200191505b50838103825286818151815260200191508051906020019080838360005b838110156105d25780820151818401526020810190506105b7565b50505050905090810190601f1680156105ff5780820380516001836020036101000a031916815260200191505b5097505050505050505060405180910390f35b6106486004803603604081101561062857600080fd5b810190808035906020019092919080359060200190929190505050610ed7565b005b34801561065657600080fd5b506106996004803603602081101561066d57600080fd5b81019080803573ffffffffffffffffffffffffffffffffffffffff169060200190929190505050610fc4565b005b3480156106a757600080fd5b506106d4600480360360208110156106be57600080fd5b8101908080359060200190929190505050611007565b6040518088815260200187815260200180602001806020018673ffffffffffffffffffffffffffffffffffffffff1673ffffffffffffffffffffffffffffffffffffffff16815260200185815260200184151515158152602001838103835288818151815260200191508051906020019080838360005b8381101561076657808201518184015260208101905061074b565b50505050905090810190601f1680156107935780820380516001836020036101000a031916815260200191505b50838103825287818151815260200191508051906020019080838360005b838110156107cc5780820151818401526020810190506107b1565b50505050905090810190601f1680156107f95780820380516001836020036101000a031916815260200191505b50995050505050505050505060405180910390f35b6108646004803603606081101561082457600080fd5b810190808035906020019092919080359060200190929190803573ffffffffffffffffffffffffffffffffffffffff1690602001909291905050506111a6565b604051808215151515815260200191505060405180910390f35b6000809054906101000a900473ffffffffffffffffffffffffffffffffffffffff1673ffffffffffffffffffffffffffffffffffffffff163373ffffffffffffffffffffffffffffffffffffffff161415156108d957600080fd5b670de0b6b3a7640000828115156108ec57fe5b046006600083815260200190815260200160002060008282540192505081905550670de0b6b3a76400008281151561092057fe5b046004600083815260200190815260200160002060050160008282540192505081905550670de0b6b3a76400008281151561095757fe5b046003600082825403925050819055505050565b60008060009054906101000a900473ffffffffffffffffffffffffffffffffffffffff1673ffffffffffffffffffffffffffffffffffffffff163373ffffffffffffffffffffffffffffffffffffffff161415156109c857600080fd5b60006004600084815260200190815260200160002060050154905080915050919050565b60035481565b60015481565b6000809054906101000a900473ffffffffffffffffffffffffffffffffffffffff1673ffffffffffffffffffffffffffffffffffffffff163373ffffffffffffffffffffffffffffffffffffffff16141515610a5357600080fd5b826006600083815260200190815260200160002060008282540392505081905550826004600083815260200190815260200160002060050160008282540392505081905550826006600084815260200190815260200160002060008282540192505081905550826004600084815260200190815260200160002060050160008282540192505081905550505050565b60066020528060005260406000206000915090505481565b6000809054906101000a900473ffffffffffffffffffffffffffffffffffffffff1673ffffffffffffffffffffffffffffffffffffffff163373ffffffffffffffffffffffffffffffffffffffff16141515610b5557600080fd5b60016000815480929190600101919050555060e06040519081016040528060015481526020014281526020018381526020018281526020018473ffffffffffffffffffffffffffffffffffffffff168152602001600281526020016001151581525060046000600154815260200190815260200160002060008201518160000155602082015181600101556040820151816002019080519060200190610bfc9291906112e3565b506060820151816003019080519060200190610c199291906112e3565b5060808201518160040160006101000a81548173ffffffffffffffffffffffffffffffffffffffff021916908373ffffffffffffffffffffffffffffffffffffffff16021790555060a0820151816005015560c08201518160060160006101000a81548160ff0219169083151502179055509050506002600660006001548152602001908152602001600020600082825401925050819055506002600360008282540192505081905550505050565b60025481565b60003073ffffffffffffffffffffffffffffffffffffffff1631905090565b60008173ffffffffffffffffffffffffffffffffffffffff16319050919050565b60008060009054906101000a900473ffffffffffffffffffffffffffffffffffffffff1673ffffffffffffffffffffffffffffffffffffffff163373ffffffffffffffffffffffffffffffffffffffff16141515610d6b57600080fd5b33905090565b6005602052806000526040600020600091509050806000015490806001018054600181600116156101000203166002900480601f016020809104026020016040519081016040528092919081815260200182805460018160011615610100020316600290048015610e235780601f10610df857610100808354040283529160200191610e23565b820191906000526020600020905b815481529060010190602001808311610e0657829003601f168201915b505050505090806002018054600181600116156101000203166002900480601f016020809104026020016040519081016040528092919081815260200182805460018160011615610100020316600290048015610ec15780601f10610e9657610100808354040283529160200191610ec1565b820191906000526020600020905b815481529060010190602001808311610ea457829003601f168201915b5050505050908060030154908060040154905085565b6000809054906101000a900473ffffffffffffffffffffffffffffffffffffffff1673ffffffffffffffffffffffffffffffffffffffff163373ffffffffffffffffffffffffffffffffffffffff16141515610f3257600080fd5b670de0b6b3a764000081811515610f4557fe5b046006600084815260200190815260200160002060008282540192505081905550670de0b6b3a764000081811515610f7957fe5b046004600084815260200190815260200160002060050160008282540192505081905550670de0b6b3a764000081811515610fb057fe5b046003600082825401925050819055505050565b806000806101000a81548173ffffffffffffffffffffffffffffffffffffffff021916908373ffffffffffffffffffffffffffffffffffffffff16021790555050565b6004602052806000526040600020600091509050806000015490806001015490806002018054600181600116156101000203166002900480601f0160208091040260200160405190810160405280929190818152602001828054600181600116156101000203166002900480156110bf5780601f10611094576101008083540402835291602001916110bf565b820191906000526020600020905b8154815290600101906020018083116110a257829003601f168201915b505050505090806003018054600181600116156101000203166002900480601f01602080910402602001604051908101604052809291908181526020018280546001816001161561010002031660029004801561115d5780601f106111325761010080835404028352916020019161115d565b820191906000526020600020905b81548152906001019060200180831161114057829003601f168201915b5050505050908060040160009054906101000a900473ffffffffffffffffffffffffffffffffffffffff16908060050154908060060160009054906101000a900460ff16905087565b60008060009054906101000a900473ffffffffffffffffffffffffffffffffffffffff1673ffffffffffffffffffffffffffffffffffffffff163373ffffffffffffffffffffffffffffffffffffffff1614151561120357600080fd5b8173ffffffffffffffffffffffffffffffffffffffff166108fc849081150290604051600060405180830381858888f19350505050158015611249573d6000803e3d6000fd5b50670de0b6b3a76400008381151561125d57fe5b046006600086815260200190815260200160002060008282540392505081905550670de0b6b3a76400008381151561129157fe5b046004600086815260200190815260200160002060050160008282540392505081905550670de0b6b3a7640000838115156112c857fe5b04600360008282540392505081905550600190509392505050565b828054600181600116156101000203166002900490600052602060002090601f016020900481019282601f1061132457805160ff1916838001178555611352565b82800160010185558215611352579182015b82811115611351578251825591602001919060010190611336565b5b50905061135f9190611363565b5090565b61138591905b80821115611381576000816000905550600101611369565b5090565b9056fea165627a7a723058207db3ee2502d7b60889b8deb562c90ee77cbd8126aab10da40fabeda8f1b063070029",
  "source": "// SPDX-License-Identifier: MIT\npragma solidity >=0.4.21 <0.7.0;\n\n// import \"github.com/Arachnid/solidity-stringutils/strings.sol\";\ncontract Banking {\n    //  using strings for *;\n\n\n\n    //The owner of the contract\n    address payable owner;\n    uint256 public serialNumber = 0;\n    uint256 public transacNum = 0;\n    uint256 public bankBalance=0;\n\n\n\n\n    // constructor() public {\n    //     owner = msg.sender;\n    // }\n\n    \n    function accountLogin(address payable _creator)public {\n       owner=_creator;\n    }\n    \n\n\n\n    //Defined condition to check that the owner who has logged in can only do these transactions\n    modifier onlyOwner() {\n        require(msg.sender == owner);\n        _;\n    }\n\n\n\n\n    //Defining a struct to store the account details\n    struct Account {\n        uint256 serial;\n        uint createdAt;\n        string name;\n        string location;\n        address creator;\n\n        //   bytes32 accountName;\n\n        uint256 balance;\n        bool doesExist;\n    }\n\n    //Defining a struct to store transaction record\n    struct Transaction {\n        uint256 transac;\n        string senderAccountName;\n        string receiverAccountName;\n        uint256 amountTransacted;\n        uint256 transactedAt;\n    }\n\n    // All the mappings present in the contract\n    mapping(uint256 => Account) public accounts;\n    mapping(uint256 => Transaction) public transactions;\n    mapping(uint256 => uint256) public balances;\n\n    event AccountCreated(\n        uint256 _serialNumber,\n        bytes32 _accountName,\n        bytes32 _name,\n        uint256 _balance\n    );\n\n    event TransactionCompleted(\n        uint256 _balance,\n        uint256 _transacNumber,\n        bytes32 _receiver,\n        bytes32 _sender\n    );\n    event LoanGenerated(uint256 _amount, bytes32 _accountName);\n\n    // error InsufficientFunds (bytes32 _accountName);\n\n\n\n    //Function to create account , the 2 ETH balance will be taken from your ethereum account and deposited to the banking contract \n    function createAccount(address payable _creator,string memory _name, string memory _location)\n        public\n        payable\n        onlyOwner\n    {\n        serialNumber++;\n        accounts[serialNumber] = Account(\n            serialNumber,\n            block.timestamp,\n            _name,\n            _location,\n            _creator,\n            2,\n            true\n        );\n        balances[serialNumber] += 2;\n        bankBalance+=2;\n    }\n\n\n\n//Function to add balance to your existing acccount ,the balance will be taken from your ethereum account\n    function addBalance(uint256 _serial, uint256 _amount) public payable onlyOwner{\n        balances[_serial] += _amount/1000000000000000000;\n        accounts[_serial].balance += _amount/1000000000000000000;\n        bankBalance+=_amount/1000000000000000000;\n    }\n    \n\n\n\n//Function to withdraw balance from your existing accounts, the balance will be transferred to your blockchain account\n    function withdrawBalance (\n        uint _serial,\n        uint256 _amount,\n        address payable _ownerAccount\n    ) external payable  onlyOwner returns  (bool _success)  {\n        _ownerAccount.transfer(_amount);\n        balances[_serial]-=_amount/1000000000000000000;\n        accounts[_serial].balance-=_amount/1000000000000000000;\n        bankBalance-=_amount/1000000000000000000;\n        return true;\n    }\n\n\n\n\n\n//Function to virtually send money from one bank account to other \n    function transactAmount(\n        uint256 _amount,\n        uint256 _serial_2,\n        uint256 _serial\n    ) public payable  onlyOwner {\n        balances[_serial] -= _amount;\n        accounts[_serial].balance -= _amount;\n\n        balances[_serial_2] += _amount;\n        accounts[_serial_2].balance += _amount;\n    }\n\n\n//Function to get a loan from the bank the accounts will be virtually updated but the actual ETH will only be transferred if you want to withdraw the amount \n    function getLoan(uint256 _amount, uint256 _serial)  public payable  onlyOwner  {\n        balances[_serial] += _amount/1000000000000000000;\n        accounts[_serial].balance += _amount/1000000000000000000;\n\n        bankBalance -= _amount/1000000000000000000;\n    }\n\n\n\n//Simple spare function to getBalance of any of the serial accounts won't be of much use but let's see\n    function getBalance(uint256 _serial) public view   onlyOwner returns (uint256) {\n        uint256 bal = accounts[_serial].balance;\n        return bal;\n    }\n\n\n//Function to get the msg.sender's ETH balance\n    function getSenderBalance(address payable _account)\n        external\n        view\n        \n        returns (uint256)\n    {\n        return _account.balance;\n    }\n\n\n//Function to get the contract's existing balance\n    function getContractBalance() external view returns (uint256) {\n        return address(this).balance;\n    }\n\n   \n\n\n\n//Function to get the owner\n\nfunction getOwner() public view  onlyOwner returns(address){\n  return msg.sender;\n}\n\n}\n\n\n\n\n\n\n\n//Terminal commands for truffle \n\n// var instance=await Banking.deployed()\n\n// var owner=await instance.getOwner()\n// var main =await instance.getMainAccount()\n\n// await instance.sendBalance()\n\n\n",
  "sourcePath": "/home/deucaleon19/Documents/eth_banking_system/contracts/Banking.sol",
  "compiler": {
    "name": "solc",
    "version": "0.5.0+commit.1d4f565a.Emscripten.clang"
  },
  "schemaVersion": "3.0.1",
  "updatedAt": "2021-09-26T10:34:12.131Z",
  "devdoc": {
    "methods": {}
  },
  "userdoc": {
    "methods": {}
  }
}