{
  "contractName": "Banking",
  "abi": [
    {
      "constant": true,
      "inputs": [],
      "name": "ownerBal",
      "outputs": [
        {
          "name": "",
          "type": "uint256"
        }
      ],
      "payable": false,
      "stateMutability": "view",
      "type": "function",
      "signature": "0x07d49020"
    },
    {
      "constant": true,
      "inputs": [
        {
          "name": "",
          "type": "uint256"
        }
      ],
      "name": "transactions",
      "outputs": [
        {
          "name": "transacNumber",
          "type": "uint256"
        },
        {
          "name": "senderAccountName",
          "type": "bytes32"
        },
        {
          "name": "receiverAccountName",
          "type": "bytes32"
        },
        {
          "name": "amountTransacted",
          "type": "uint256"
        },
        {
          "name": "transactedAt",
          "type": "uint256"
        }
      ],
      "payable": false,
      "stateMutability": "view",
      "type": "function",
      "signature": "0x9ace38c2"
    },
    {
      "constant": true,
      "inputs": [
        {
          "name": "",
          "type": "bytes32"
        }
      ],
      "name": "accounts",
      "outputs": [
        {
          "name": "serialNumber",
          "type": "uint256"
        },
        {
          "name": "createdAt",
          "type": "uint256"
        },
        {
          "name": "name",
          "type": "bytes32"
        },
        {
          "name": "location",
          "type": "bytes32"
        },
        {
          "name": "accountName",
          "type": "bytes32"
        },
        {
          "name": "balance",
          "type": "uint256"
        },
        {
          "name": "doesExist",
          "type": "bool"
        }
      ],
      "payable": false,
      "stateMutability": "view",
      "type": "function",
      "signature": "0xbc529c43"
    },
    {
      "inputs": [],
      "payable": false,
      "stateMutability": "nonpayable",
      "type": "constructor",
      "signature": "constructor"
    },
    {
      "anonymous": false,
      "inputs": [
        {
          "indexed": false,
          "name": "_serialNumber",
          "type": "uint256"
        },
        {
          "indexed": false,
          "name": "_accountName",
          "type": "bytes32"
        },
        {
          "indexed": false,
          "name": "_name",
          "type": "bytes32"
        },
        {
          "indexed": false,
          "name": "_balance",
          "type": "uint256"
        }
      ],
      "name": "AccountCreated",
      "type": "event",
      "signature": "0x489f53c6c3ae7e50a0659344a2a98457cbf11cc6d6ee3036aac001413cabf65a"
    },
    {
      "anonymous": false,
      "inputs": [
        {
          "indexed": false,
          "name": "_balance",
          "type": "uint256"
        },
        {
          "indexed": false,
          "name": "_transacNumber",
          "type": "uint256"
        },
        {
          "indexed": false,
          "name": "_receiver",
          "type": "bytes32"
        },
        {
          "indexed": false,
          "name": "_sender",
          "type": "bytes32"
        }
      ],
      "name": "TransactionCompleted",
      "type": "event",
      "signature": "0x41527871343696a107a542384004299ce002df647a9885de78d23188e4526c0d"
    },
    {
      "anonymous": false,
      "inputs": [
        {
          "indexed": false,
          "name": "_amount",
          "type": "uint256"
        },
        {
          "indexed": false,
          "name": "_accountName",
          "type": "bytes32"
        }
      ],
      "name": "LoanGenerated",
      "type": "event",
      "signature": "0x641a32bdd10787f44649233bb575e663202d32757ca17d721f4baf7378cbc80f"
    },
    {
      "constant": true,
      "inputs": [],
      "name": "getOwner",
      "outputs": [
        {
          "name": "",
          "type": "address"
        }
      ],
      "payable": false,
      "stateMutability": "view",
      "type": "function",
      "signature": "0x893d20e8"
    },
    {
      "constant": true,
      "inputs": [],
      "name": "getMainAccount",
      "outputs": [
        {
          "name": "",
          "type": "address"
        }
      ],
      "payable": false,
      "stateMutability": "view",
      "type": "function",
      "signature": "0x0ca7ff3b"
    },
    {
      "constant": false,
      "inputs": [],
      "name": "sendBalance",
      "outputs": [],
      "payable": true,
      "stateMutability": "payable",
      "type": "function",
      "signature": "0xe7422d29"
    }
  ],
  "bytecode": "0x608060405234801561001057600080fd5b50336000806101000a81548173ffffffffffffffffffffffffffffffffffffffff021916908373ffffffffffffffffffffffffffffffffffffffff16021790555073dab74b7dba038eec5a99ce26257668cb86f6ec0c600160006101000a81548173ffffffffffffffffffffffffffffffffffffffff021916908373ffffffffffffffffffffffffffffffffffffffff1602179055506103c4806100b56000396000f3fe608060405260043610610078576000357c0100000000000000000000000000000000000000000000000000000000900463ffffffff16806307d490201461007d5780630ca7ff3b146100a8578063893d20e8146100ff5780639ace38c214610156578063bc529c43146101c1578063e7422d291461023e575b600080fd5b34801561008957600080fd5b50610092610248565b6040518082815260200191505060405180910390f35b3480156100b457600080fd5b506100bd61024e565b604051808273ffffffffffffffffffffffffffffffffffffffff1673ffffffffffffffffffffffffffffffffffffffff16815260200191505060405180910390f35b34801561010b57600080fd5b50610114610278565b604051808273ffffffffffffffffffffffffffffffffffffffff1673ffffffffffffffffffffffffffffffffffffffff16815260200191505060405180910390f35b34801561016257600080fd5b5061018f6004803603602081101561017957600080fd5b81019080803590602001909291905050506102a1565b604051808681526020018581526020018481526020018381526020018281526020019550505050505060405180910390f35b3480156101cd57600080fd5b506101fa600480360360208110156101e457600080fd5b81019080803590602001909291905050506102d7565b604051808881526020018781526020018681526020018581526020018481526020018381526020018215151515815260200197505050505050505060405180910390f35b610246610326565b005b60025481565b6000600160009054906101000a900473ffffffffffffffffffffffffffffffffffffffff16905090565b60008060009054906101000a900473ffffffffffffffffffffffffffffffffffffffff16905090565b60046020528060005260406000206000915090508060000154908060010154908060020154908060030154908060040154905085565b60036020528060005260406000206000915090508060000154908060010154908060020154908060030154908060040154908060050154908060060160009054906101000a900460ff16905087565b6000809054906101000a900473ffffffffffffffffffffffffffffffffffffffff1673ffffffffffffffffffffffffffffffffffffffff166108fc670de0b6b3a76400009081150290604051600060405180830381858888f19350505050158015610395573d6000803e3d6000fd5b5056fea165627a7a72305820c0d5798eaf3f8400cfd00aec4dce4336962d3390a2171619375d0957475872370029",
  "source": "// SPDX-License-Identifier: MIT\npragma solidity >=0.4.21 <0.7.0;\n\n\ncontract Banking {\n\n\n\n\n\n//Defining a struct to store Account details which will be mapped in the accounts page\n\naddress payable owner;\naddress payable mainAccount;\n\n\nuint public ownerBal;\n\n\n constructor() public{   \n        owner=msg.sender;\n        mainAccount=address(0xdaB74b7DbA038eec5A99CE26257668CB86f6EC0C);\n\n    }\n  \n\n    function getOwner(\n    ) public view returns (address) {    \n        return owner;\n    }\n  \n   function getMainAccount(\n    ) public view returns (address) {    \n        return mainAccount;\n    }\n  \n\n\n\n//Defined condition to check that the owner who has logged in can only do these transactions \n\n// modifier onlyOwner{\n//     require(msg.sender==owner);\n//    _;\n// }\n\nstruct Account{\n  uint serialNumber;\n  uint createdAt;\n  bytes32 name;\n  bytes32 location;\n  bytes32 accountName;\n  uint balance;\n  bool doesExist;\n}\n\n\n//Defining a struct to store transaction record\nstruct Transaction{\n    uint transacNumber;\n    bytes32 senderAccountName;\n    bytes32 receiverAccountName;\n    uint amountTransacted;\n    uint transactedAt;\n}\n\n\nmapping(bytes32=>Account) public accounts;\n\nmapping(uint=>Transaction)public transactions;\n\n\nevent AccountCreated(uint _serialNumber,bytes32 _accountName,bytes32 _name,uint _balance);\nevent TransactionCompleted(uint _balance,uint _transacNumber,bytes32 _receiver,bytes32 _sender);\nevent LoanGenerated (uint _amount,bytes32 _accountName);\n\n\n\n\n// error InsufficientFunds (bytes32 _accountName);\n\n\n\n// function createAccount(bytes32  _name,bytes32  _location) public payable onlyOwner{\n\n// }\n\n// function addBalance(bytes32 _accountName,uint _amount )public onlyOwner{\n\n// }\n\n\n// function withdrawBalance(bytes32 _accountName,uint _amount)public onlyOwner{\n\n// }\n\n\n// function transactAmount(uint _amount,bytes32  _receiverAccountName) public payable onlyOwner {\n\n\n// }\n\n\n// function getLoan(uint amount) public onlyOwner{\n\n \n// }\n\n// function getBalance() public view onlyOwner returns(uint){\n\n//  uint bal=owner.balance;\n \n//  return bal;\n// }\n\nfunction sendBalance() public payable \n\n{\n owner.transfer(1 ether);\n\n}\n\n\n\n}\n\n\n\n\n\n// var instance=await Banking.deployed()\n\n\n// var owner=await instance.getOwner()\n// var main =await instance.getMainAccount()\n\n// await instance.sendBalance()",
  "sourcePath": "/home/deucaleon19/Documents/eth_banking_system/contracts/Banking.sol",
  "compiler": {
    "name": "solc",
    "version": "0.5.0+commit.1d4f565a.Emscripten.clang"
  },
  "schemaVersion": "3.0.1",
  "updatedAt": "2021-09-22T00:51:20.147Z",
  "devdoc": {
    "methods": {}
  },
  "userdoc": {
    "methods": {}
  }
}