{
  "contractName": "Banking",
  "abi": [
    {
      "constant": true,
      "inputs": [],
      "name": "ownerBal",
      "outputs": [
        {
          "name": "",
          "type": "uint256"
        }
      ],
      "payable": false,
      "stateMutability": "view",
      "type": "function",
      "signature": "0x07d49020"
    },
    {
      "constant": true,
      "inputs": [],
      "name": "bankBalance",
      "outputs": [
        {
          "name": "",
          "type": "uint256"
        }
      ],
      "payable": false,
      "stateMutability": "view",
      "type": "function",
      "signature": "0x28657aa5"
    },
    {
      "constant": true,
      "inputs": [],
      "name": "serialNumber",
      "outputs": [
        {
          "name": "",
          "type": "uint256"
        }
      ],
      "payable": false,
      "stateMutability": "view",
      "type": "function",
      "signature": "0x2a0daeea"
    },
    {
      "constant": true,
      "inputs": [
        {
          "name": "",
          "type": "uint256"
        }
      ],
      "name": "balances",
      "outputs": [
        {
          "name": "",
          "type": "uint256"
        }
      ],
      "payable": false,
      "stateMutability": "view",
      "type": "function",
      "signature": "0x4903b0d1"
    },
    {
      "constant": true,
      "inputs": [],
      "name": "transacNum",
      "outputs": [
        {
          "name": "",
          "type": "uint256"
        }
      ],
      "payable": false,
      "stateMutability": "view",
      "type": "function",
      "signature": "0x6b17aa83"
    },
    {
      "constant": true,
      "inputs": [
        {
          "name": "",
          "type": "uint256"
        }
      ],
      "name": "transactions",
      "outputs": [
        {
          "name": "transac",
          "type": "uint256"
        },
        {
          "name": "senderAccountName",
          "type": "string"
        },
        {
          "name": "receiverAccountName",
          "type": "string"
        },
        {
          "name": "amountTransacted",
          "type": "uint256"
        },
        {
          "name": "transactedAt",
          "type": "uint256"
        }
      ],
      "payable": false,
      "stateMutability": "view",
      "type": "function",
      "signature": "0x9ace38c2"
    },
    {
      "constant": true,
      "inputs": [
        {
          "name": "",
          "type": "uint256"
        }
      ],
      "name": "accounts",
      "outputs": [
        {
          "name": "serial",
          "type": "uint256"
        },
        {
          "name": "name",
          "type": "string"
        },
        {
          "name": "location",
          "type": "string"
        },
        {
          "name": "balance",
          "type": "uint256"
        },
        {
          "name": "doesExist",
          "type": "bool"
        }
      ],
      "payable": false,
      "stateMutability": "view",
      "type": "function",
      "signature": "0xf2a40db8"
    },
    {
      "inputs": [],
      "payable": false,
      "stateMutability": "nonpayable",
      "type": "constructor",
      "signature": "constructor"
    },
    {
      "anonymous": false,
      "inputs": [
        {
          "indexed": false,
          "name": "_serialNumber",
          "type": "uint256"
        },
        {
          "indexed": false,
          "name": "_accountName",
          "type": "bytes32"
        },
        {
          "indexed": false,
          "name": "_name",
          "type": "bytes32"
        },
        {
          "indexed": false,
          "name": "_balance",
          "type": "uint256"
        }
      ],
      "name": "AccountCreated",
      "type": "event",
      "signature": "0x489f53c6c3ae7e50a0659344a2a98457cbf11cc6d6ee3036aac001413cabf65a"
    },
    {
      "anonymous": false,
      "inputs": [
        {
          "indexed": false,
          "name": "_balance",
          "type": "uint256"
        },
        {
          "indexed": false,
          "name": "_transacNumber",
          "type": "uint256"
        },
        {
          "indexed": false,
          "name": "_receiver",
          "type": "bytes32"
        },
        {
          "indexed": false,
          "name": "_sender",
          "type": "bytes32"
        }
      ],
      "name": "TransactionCompleted",
      "type": "event",
      "signature": "0x41527871343696a107a542384004299ce002df647a9885de78d23188e4526c0d"
    },
    {
      "anonymous": false,
      "inputs": [
        {
          "indexed": false,
          "name": "_amount",
          "type": "uint256"
        },
        {
          "indexed": false,
          "name": "_accountName",
          "type": "bytes32"
        }
      ],
      "name": "LoanGenerated",
      "type": "event",
      "signature": "0x641a32bdd10787f44649233bb575e663202d32757ca17d721f4baf7378cbc80f"
    },
    {
      "constant": false,
      "inputs": [
        {
          "name": "_name",
          "type": "string"
        },
        {
          "name": "_location",
          "type": "string"
        }
      ],
      "name": "createAccount",
      "outputs": [],
      "payable": true,
      "stateMutability": "payable",
      "type": "function",
      "signature": "0x19289287"
    },
    {
      "constant": false,
      "inputs": [
        {
          "name": "_serial",
          "type": "uint256"
        },
        {
          "name": "_amount",
          "type": "uint256"
        }
      ],
      "name": "addBalance",
      "outputs": [],
      "payable": true,
      "stateMutability": "payable",
      "type": "function",
      "signature": "0xa40398a6"
    },
    {
      "constant": false,
      "inputs": [
        {
          "name": "_serial",
          "type": "uint256"
        },
        {
          "name": "_amount",
          "type": "uint256"
        },
        {
          "name": "mainAccount",
          "type": "address"
        }
      ],
      "name": "withdrawBalance",
      "outputs": [],
      "payable": true,
      "stateMutability": "payable",
      "type": "function",
      "signature": "0xfb3d4771"
    },
    {
      "constant": false,
      "inputs": [
        {
          "name": "_amount",
          "type": "uint256"
        },
        {
          "name": "_serial_2",
          "type": "uint256"
        },
        {
          "name": "_serial",
          "type": "uint256"
        }
      ],
      "name": "transactAmount",
      "outputs": [],
      "payable": true,
      "stateMutability": "payable",
      "type": "function",
      "signature": "0x3bd8b71d"
    },
    {
      "constant": false,
      "inputs": [
        {
          "name": "_amount",
          "type": "uint256"
        },
        {
          "name": "_serial",
          "type": "uint256"
        }
      ],
      "name": "getLoan",
      "outputs": [],
      "payable": true,
      "stateMutability": "payable",
      "type": "function",
      "signature": "0x06789aba"
    },
    {
      "constant": true,
      "inputs": [
        {
          "name": "_serial",
          "type": "uint256"
        }
      ],
      "name": "getBalance",
      "outputs": [
        {
          "name": "",
          "type": "uint256"
        }
      ],
      "payable": false,
      "stateMutability": "view",
      "type": "function",
      "signature": "0x1e010439"
    }
  ],
  "bytecode": "0x608060405260006002556000600355620f424060045534801561002157600080fd5b50336000806101000a81548173ffffffffffffffffffffffffffffffffffffffff021916908373ffffffffffffffffffffffffffffffffffffffff16021790555073dab74b7dba038eec5a99ce26257668cb86f6ec0c600160006101000a81548173ffffffffffffffffffffffffffffffffffffffff021916908373ffffffffffffffffffffffffffffffffffffffff160217905550610d66806100c66000396000f3fe6080604052600436106100c5576000357c0100000000000000000000000000000000000000000000000000000000900463ffffffff16806306789aba146100ca57806307d4902014610102578063192892871461012d5780631e0104391461027f57806328657aa5146102ce5780632a0daeea146102f95780633bd8b71d146103245780634903b0d1146103665780636b17aa83146103b55780639ace38c2146103e0578063a40398a614610515578063f2a40db81461054d578063fb3d477114610686575b600080fd5b610100600480360360408110156100e057600080fd5b8101908080359060200190929190803590602001909291905050506106de565b005b34801561010e57600080fd5b50610117610737565b6040518082815260200191505060405180910390f35b61027d6004803603604081101561014357600080fd5b810190808035906020019064010000000081111561016057600080fd5b82018360208201111561017257600080fd5b8035906020019184600183028401116401000000008311171561019457600080fd5b91908080601f016020809104026020016040519081016040528093929190818152602001838380828437600081840152601f19601f820116905080830192505050505050509192919290803590602001906401000000008111156101f757600080fd5b82018360208201111561020957600080fd5b8035906020019184600183028401116401000000008311171561022b57600080fd5b91908080601f016020809104026020016040519081016040528093929190818152602001838380828437600081840152601f19601f82011690508083019250505050505050919291929050505061073d565b005b34801561028b57600080fd5b506102b8600480360360208110156102a257600080fd5b810190808035906020019092919050505061082b565b6040518082815260200191505060405180910390f35b3480156102da57600080fd5b506102e3610850565b6040518082815260200191505060405180910390f35b34801561030557600080fd5b5061030e610856565b6040518082815260200191505060405180910390f35b6103646004803603606081101561033a57600080fd5b8101908080359060200190929190803590602001909291908035906020019092919050505061085c565b005b34801561037257600080fd5b5061039f6004803603602081101561038957600080fd5b81019080803590602001909291905050506108eb565b6040518082815260200191505060405180910390f35b3480156103c157600080fd5b506103ca610903565b6040518082815260200191505060405180910390f35b3480156103ec57600080fd5b506104196004803603602081101561040357600080fd5b8101908080359060200190929190505050610909565b604051808681526020018060200180602001858152602001848152602001838103835287818151815260200191508051906020019080838360005b8381101561046f578082015181840152602081019050610454565b50505050905090810190601f16801561049c5780820380516001836020036101000a031916815260200191505b50838103825286818151815260200191508051906020019080838360005b838110156104d55780820151818401526020810190506104ba565b50505050905090810190601f1680156105025780820380516001836020036101000a031916815260200191505b5097505050505050505060405180910390f35b61054b6004803603604081101561052b57600080fd5b810190808035906020019092919080359060200190929190505050610a6f565b005b34801561055957600080fd5b506105866004803603602081101561057057600080fd5b8101908080359060200190929190505050610ac8565b60405180868152602001806020018060200185815260200184151515158152602001838103835287818151815260200191508051906020019080838360005b838110156105e05780820151818401526020810190506105c5565b50505050905090810190601f16801561060d5780820380516001836020036101000a031916815260200191505b50838103825286818151815260200191508051906020019080838360005b8381101561064657808201518184015260208101905061062b565b50505050905090810190601f1680156106735780820380516001836020036101000a031916815260200191505b5097505050505050505060405180910390f35b6106dc6004803603606081101561069c57600080fd5b810190808035906020019092919080359060200190929190803573ffffffffffffffffffffffffffffffffffffffff169060200190929190505050610c3b565b005b816008600083815260200190815260200160002060008282540192505081905550816006600083815260200190815260200160002060030160008282540192505081905550816004600082825403925050819055505050565b60055481565b60026000815480929190600101919050555060a060405190810160405280600254815260200183815260200182815260200160028152602001600115158152506006600060025481526020019081526020016000206000820151816000015560208201518160010190805190602001906107b8929190610c95565b5060408201518160020190805190602001906107d5929190610c95565b506060820151816003015560808201518160040160006101000a81548160ff0219169083151502179055509050506002600860006002548152602001908152602001600020600082825401925050819055505050565b6000806006600084815260200190815260200160002060030154905080915050919050565b60045481565b60025481565b826008600083815260200190815260200160002060008282540392505081905550826006600083815260200190815260200160002060030160008282540392505081905550826008600084815260200190815260200160002060008282540192505081905550826006600084815260200190815260200160002060030160008282540192505081905550505050565b60086020528060005260406000206000915090505481565b60035481565b6007602052806000526040600020600091509050806000015490806001018054600181600116156101000203166002900480601f0160208091040260200160405190810160405280929190818152602001828054600181600116156101000203166002900480156109bb5780601f10610990576101008083540402835291602001916109bb565b820191906000526020600020905b81548152906001019060200180831161099e57829003601f168201915b505050505090806002018054600181600116156101000203166002900480601f016020809104026020016040519081016040528092919081815260200182805460018160011615610100020316600290048015610a595780601f10610a2e57610100808354040283529160200191610a59565b820191906000526020600020905b815481529060010190602001808311610a3c57829003601f168201915b5050505050908060030154908060040154905085565b806008600084815260200190815260200160002060008282540192505081905550806006600084815260200190815260200160002060030160008282540192505081905550806004600082825401925050819055505050565b6006602052806000526040600020600091509050806000015490806001018054600181600116156101000203166002900480601f016020809104026020016040519081016040528092919081815260200182805460018160011615610100020316600290048015610b7a5780601f10610b4f57610100808354040283529160200191610b7a565b820191906000526020600020905b815481529060010190602001808311610b5d57829003601f168201915b505050505090806002018054600181600116156101000203166002900480601f016020809104026020016040519081016040528092919081815260200182805460018160011615610100020316600290048015610c185780601f10610bed57610100808354040283529160200191610c18565b820191906000526020600020905b815481529060010190602001808311610bfb57829003601f168201915b5050505050908060030154908060040160009054906101000a900460ff16905085565b81600860008581526020019081526020016000206000828254039250508190555081600660008581526020019081526020016000206003016000828254039250508190555081600460008282540392505081905550505050565b828054600181600116156101000203166002900490600052602060002090601f016020900481019282601f10610cd657805160ff1916838001178555610d04565b82800160010185558215610d04579182015b82811115610d03578251825591602001919060010190610ce8565b5b509050610d119190610d15565b5090565b610d3791905b80821115610d33576000816000905550600101610d1b565b5090565b9056fea165627a7a723058201c953a7b5bce819aee7b37e0de2d3737c00e8e3e49d0fedb500494704f18e7220029",
  "source": "// SPDX-License-Identifier: MIT\npragma solidity >=0.4.21 <0.7.0;\n// import \"github.com/Arachnid/solidity-stringutils/strings.sol\";\ncontract Banking {\n//  using strings for *;\n//Defining a struct to store Account details which will be mapped in the accounts page\naddress payable owner;\naddress payable mainAccount;\nuint public serialNumber=0;\nuint public transacNum=0;\nuint public bankBalance=1000000;\nuint public ownerBal;\n\n constructor() public{   \n        owner=msg.sender;\n        mainAccount=address(0xdaB74b7DbA038eec5A99CE26257668CB86f6EC0C);\n    } \n//     function getOwner(\n//     ) public view returns (address) {    \n//         return owner;\n//     }\n  \n//    function getMainAccount(\n//     ) public view returns (address) {    \n//         return mainAccount;\n//     }\n//Defined condition to check that the owner who has logged in can only do these transactions \nmodifier onlyOwner{\n    require(msg.sender==owner);\n   _;\n}\n//Defining a struct to store the account details \nstruct Account{\n  uint serial;\n//   uint createdAt;\n  string name;\n  string location;\n//   bytes32 accountName;\n\n  uint balance;\n  bool doesExist;\n}\n//Defining a struct to store transaction record\nstruct Transaction{\n    uint transac;\n    string senderAccountName;\n    string receiverAccountName;\n    uint amountTransacted;\n    uint transactedAt;\n}\n// All the mappings present in the contract \nmapping(uint=>Account) public accounts;\nmapping(uint=>Transaction)public transactions;\nmapping(uint=>uint)public balances;\n\nevent AccountCreated(uint _serialNumber,bytes32 _accountName,bytes32 _name,uint _balance);\nevent TransactionCompleted(uint _balance,uint _transacNumber,bytes32 _receiver,bytes32 _sender);\nevent LoanGenerated (uint _amount,bytes32 _accountName);\n// error InsufficientFunds (bytes32 _accountName);\nfunction createAccount(string memory _name,string memory _location) public payable \n\n{\nserialNumber++;\naccounts[serialNumber]=Account(serialNumber,_name,_location,2,true);\nbalances[serialNumber]+=2;\n}\n\n\nfunction addBalance(uint _serial,uint _amount )public payable\n {\n\nbalances[_serial]+=_amount;\naccounts[_serial].balance+=_amount;\nbankBalance+=_amount;\n\n}\n\nfunction withdrawBalance(uint _serial,uint _amount,address mainAccount)public payable\n\n {\n\nbalances[_serial]-=_amount;\naccounts[_serial].balance-=_amount;\nbankBalance-=_amount;\n\n}\n\nfunction transactAmount(uint _amount,uint _serial_2,uint _serial) public payable \n\n{\nbalances[_serial]-=_amount;\naccounts[_serial].balance-=_amount;\n\nbalances[_serial_2]+=_amount;\naccounts[_serial_2].balance+=_amount;\n\n}\n\nfunction getLoan(uint _amount,uint _serial) public payable\n\n\n{\nbalances[_serial]+=_amount;\naccounts[_serial].balance+=_amount;\n\nbankBalance-=_amount;\n}\n\nfunction getBalance(uint _serial) public view \n\n\nreturns(uint){\n\n uint bal=accounts[_serial].balance;\n return bal;\n}\n\n\n\n\n\n\n// function sendBalance(address payable _receiver,uint _amount) public payable \n\n// {\n//  balances[msg.sender]-=_amount;\n//  balances[_receiver]+=_amount;\n// }\n\n\n\n}\n\n\n\n\n\n// var instance=await Banking.deployed()\n\n\n// var owner=await instance.getOwner()\n// var main =await instance.getMainAccount()\n\n// await instance.sendBalance()",
  "sourcePath": "/home/deucaleon19/Documents/eth_banking_system/contracts/Banking.sol",
  "compiler": {
    "name": "solc",
    "version": "0.5.0+commit.1d4f565a.Emscripten.clang"
  },
  "schemaVersion": "3.0.1",
  "updatedAt": "2021-09-25T14:49:20.113Z",
  "devdoc": {
    "methods": {}
  },
  "userdoc": {
    "methods": {}
  }
}